{
  "contractName": "LegalDoc",
  "abi": [
    {
      "inputs": [],
      "stateMutability": "nonpayable",
      "type": "constructor"
    },
    {
      "anonymous": false,
      "inputs": [
        {
          "indexed": true,
          "internalType": "address",
          "name": "owner",
          "type": "address"
        },
        {
          "indexed": true,
          "internalType": "address",
          "name": "approved",
          "type": "address"
        },
        {
          "indexed": true,
          "internalType": "uint256",
          "name": "tokenId",
          "type": "uint256"
        }
      ],
      "name": "Approval",
      "type": "event"
    },
    {
      "anonymous": false,
      "inputs": [
        {
          "indexed": true,
          "internalType": "address",
          "name": "owner",
          "type": "address"
        },
        {
          "indexed": true,
          "internalType": "address",
          "name": "operator",
          "type": "address"
        },
        {
          "indexed": false,
          "internalType": "bool",
          "name": "approved",
          "type": "bool"
        }
      ],
      "name": "ApprovalForAll",
      "type": "event"
    },
    {
      "anonymous": false,
      "inputs": [
        {
          "indexed": true,
          "internalType": "address",
          "name": "previousOwner",
          "type": "address"
        },
        {
          "indexed": true,
          "internalType": "address",
          "name": "newOwner",
          "type": "address"
        }
      ],
      "name": "OwnershipTransferred",
      "type": "event"
    },
    {
      "anonymous": false,
      "inputs": [
        {
          "indexed": true,
          "internalType": "address",
          "name": "from",
          "type": "address"
        },
        {
          "indexed": true,
          "internalType": "address",
          "name": "to",
          "type": "address"
        },
        {
          "indexed": true,
          "internalType": "uint256",
          "name": "tokenId",
          "type": "uint256"
        }
      ],
      "name": "Transfer",
      "type": "event"
    },
    {
      "inputs": [
        {
          "internalType": "address",
          "name": "to",
          "type": "address"
        },
        {
          "internalType": "uint256",
          "name": "tokenId",
          "type": "uint256"
        }
      ],
      "name": "approve",
      "outputs": [],
      "stateMutability": "nonpayable",
      "type": "function"
    },
    {
      "inputs": [
        {
          "internalType": "address",
          "name": "owner",
          "type": "address"
        }
      ],
      "name": "balanceOf",
      "outputs": [
        {
          "internalType": "uint256",
          "name": "",
          "type": "uint256"
        }
      ],
      "stateMutability": "view",
      "type": "function",
      "constant": true
    },
    {
      "inputs": [
        {
          "internalType": "uint256",
          "name": "tokenId",
          "type": "uint256"
        }
      ],
      "name": "getApproved",
      "outputs": [
        {
          "internalType": "address",
          "name": "",
          "type": "address"
        }
      ],
      "stateMutability": "view",
      "type": "function",
      "constant": true
    },
    {
      "inputs": [
        {
          "internalType": "address",
          "name": "owner",
          "type": "address"
        },
        {
          "internalType": "address",
          "name": "operator",
          "type": "address"
        }
      ],
      "name": "isApprovedForAll",
      "outputs": [
        {
          "internalType": "bool",
          "name": "",
          "type": "bool"
        }
      ],
      "stateMutability": "view",
      "type": "function",
      "constant": true
    },
    {
      "inputs": [],
      "name": "name",
      "outputs": [
        {
          "internalType": "string",
          "name": "",
          "type": "string"
        }
      ],
      "stateMutability": "view",
      "type": "function",
      "constant": true
    },
    {
      "inputs": [],
      "name": "owner",
      "outputs": [
        {
          "internalType": "address",
          "name": "",
          "type": "address"
        }
      ],
      "stateMutability": "view",
      "type": "function",
      "constant": true
    },
    {
      "inputs": [
        {
          "internalType": "uint256",
          "name": "tokenId",
          "type": "uint256"
        }
      ],
      "name": "ownerOf",
      "outputs": [
        {
          "internalType": "address",
          "name": "",
          "type": "address"
        }
      ],
      "stateMutability": "view",
      "type": "function",
      "constant": true
    },
    {
      "inputs": [],
      "name": "renounceOwnership",
      "outputs": [],
      "stateMutability": "nonpayable",
      "type": "function"
    },
    {
      "inputs": [
        {
          "internalType": "address",
          "name": "from",
          "type": "address"
        },
        {
          "internalType": "address",
          "name": "to",
          "type": "address"
        },
        {
          "internalType": "uint256",
          "name": "tokenId",
          "type": "uint256"
        }
      ],
      "name": "safeTransferFrom",
      "outputs": [],
      "stateMutability": "nonpayable",
      "type": "function"
    },
    {
      "inputs": [
        {
          "internalType": "address",
          "name": "from",
          "type": "address"
        },
        {
          "internalType": "address",
          "name": "to",
          "type": "address"
        },
        {
          "internalType": "uint256",
          "name": "tokenId",
          "type": "uint256"
        },
        {
          "internalType": "bytes",
          "name": "_data",
          "type": "bytes"
        }
      ],
      "name": "safeTransferFrom",
      "outputs": [],
      "stateMutability": "nonpayable",
      "type": "function"
    },
    {
      "inputs": [
        {
          "internalType": "address",
          "name": "operator",
          "type": "address"
        },
        {
          "internalType": "bool",
          "name": "approved",
          "type": "bool"
        }
      ],
      "name": "setApprovalForAll",
      "outputs": [],
      "stateMutability": "nonpayable",
      "type": "function"
    },
    {
      "inputs": [],
      "name": "symbol",
      "outputs": [
        {
          "internalType": "string",
          "name": "",
          "type": "string"
        }
      ],
      "stateMutability": "view",
      "type": "function",
      "constant": true
    },
    {
      "inputs": [
        {
          "internalType": "uint256",
          "name": "index",
          "type": "uint256"
        }
      ],
      "name": "tokenByIndex",
      "outputs": [
        {
          "internalType": "uint256",
          "name": "",
          "type": "uint256"
        }
      ],
      "stateMutability": "view",
      "type": "function",
      "constant": true
    },
    {
      "inputs": [
        {
          "internalType": "address",
          "name": "owner",
          "type": "address"
        },
        {
          "internalType": "uint256",
          "name": "index",
          "type": "uint256"
        }
      ],
      "name": "tokenOfOwnerByIndex",
      "outputs": [
        {
          "internalType": "uint256",
          "name": "",
          "type": "uint256"
        }
      ],
      "stateMutability": "view",
      "type": "function",
      "constant": true
    },
    {
      "inputs": [],
      "name": "totalSupply",
      "outputs": [
        {
          "internalType": "uint256",
          "name": "",
          "type": "uint256"
        }
      ],
      "stateMutability": "view",
      "type": "function",
      "constant": true
    },
    {
      "inputs": [
        {
          "internalType": "address",
          "name": "from",
          "type": "address"
        },
        {
          "internalType": "address",
          "name": "to",
          "type": "address"
        },
        {
          "internalType": "uint256",
          "name": "tokenId",
          "type": "uint256"
        }
      ],
      "name": "transferFrom",
      "outputs": [],
      "stateMutability": "nonpayable",
      "type": "function"
    },
    {
      "inputs": [
        {
          "internalType": "address",
          "name": "newOwner",
          "type": "address"
        }
      ],
      "name": "transferOwnership",
      "outputs": [],
      "stateMutability": "nonpayable",
      "type": "function"
    },
    {
      "inputs": [
        {
          "internalType": "address",
          "name": "to",
          "type": "address"
        },
        {
          "internalType": "uint256",
          "name": "tokenId",
          "type": "uint256"
        },
        {
          "internalType": "string",
          "name": "uri",
          "type": "string"
        }
      ],
      "name": "safeMint",
      "outputs": [],
      "stateMutability": "nonpayable",
      "type": "function"
    },
    {
      "inputs": [
        {
          "internalType": "uint256",
          "name": "tokenId",
          "type": "uint256"
        }
      ],
      "name": "tokenURI",
      "outputs": [
        {
          "internalType": "string",
          "name": "",
          "type": "string"
        }
      ],
      "stateMutability": "view",
      "type": "function",
      "constant": true
    },
    {
      "inputs": [
        {
          "internalType": "bytes4",
          "name": "interfaceId",
          "type": "bytes4"
        }
      ],
      "name": "supportsInterface",
      "outputs": [
        {
          "internalType": "bool",
          "name": "",
          "type": "bool"
        }
      ],
      "stateMutability": "view",
      "type": "function",
      "constant": true
    }
  ],
  "bytecode": "0x60806040523480156200001157600080fd5b506040518060400160405280600a81526020017f4c6567616c20446f6373000000000000000000000000000000000000000000008152506040518060400160405280600481526020017f4c444f4300000000000000000000000000000000000000000000000000000000815250816000908051906020019062000096929190620001a6565b508060019080519060200190620000af929190620001a6565b505050620000d2620000c6620000d860201b60201c565b620000e060201b60201c565b620002bb565b600033905090565b6000600b60009054906101000a900473ffffffffffffffffffffffffffffffffffffffff16905081600b60006101000a81548173ffffffffffffffffffffffffffffffffffffffff021916908373ffffffffffffffffffffffffffffffffffffffff1602179055508173ffffffffffffffffffffffffffffffffffffffff168173ffffffffffffffffffffffffffffffffffffffff167f8be0079c531659141344cd1fd0a4f28419497f9722a3daafe3b4186f6b6457e060405160405180910390a35050565b828054620001b49062000256565b90600052602060002090601f016020900481019282620001d8576000855562000224565b82601f10620001f357805160ff191683800117855562000224565b8280016001018555821562000224579182015b828111156200022357825182559160200191906001019062000206565b5b50905062000233919062000237565b5090565b5b808211156200025257600081600090555060010162000238565b5090565b600060028204905060018216806200026f57607f821691505b602082108114156200028657620002856200028c565b5b50919050565b7f4e487b7100000000000000000000000000000000000000000000000000000000600052602260045260246000fd5b61383880620002cb6000396000f3fe608060405234801561001057600080fd5b506004361061012c5760003560e01c806370a08231116100ad578063b88d4fde11610071578063b88d4fde14610343578063c87b56dd1461035f578063cd279c7c1461038f578063e985e9c5146103ab578063f2fde38b146103db5761012c565b806370a08231146102b1578063715018a6146102e15780638da5cb5b146102eb57806395d89b4114610309578063a22cb465146103275761012c565b806323b872dd116100f457806323b872dd146101e95780632f745c591461020557806342842e0e146102355780634f6ccce7146102515780636352211e146102815761012c565b806301ffc9a71461013157806306fdde0314610161578063081812fc1461017f578063095ea7b3146101af57806318160ddd146101cb575b600080fd5b61014b600480360381019061014691906126c3565b6103f7565b6040516101589190612b55565b60405180910390f35b610169610409565b6040516101769190612b70565b60405180910390f35b61019960048036038101906101949190612715565b61049b565b6040516101a69190612aee565b60405180910390f35b6101c960048036038101906101c49190612620565b610520565b005b6101d3610638565b6040516101e09190612e12565b60405180910390f35b61020360048036038101906101fe919061251a565b610645565b005b61021f600480360381019061021a9190612620565b6106a5565b60405161022c9190612e12565b60405180910390f35b61024f600480360381019061024a919061251a565b61074a565b005b61026b60048036038101906102669190612715565b61076a565b6040516102789190612e12565b60405180910390f35b61029b60048036038101906102969190612715565b610801565b6040516102a89190612aee565b60405180910390f35b6102cb60048036038101906102c691906124b5565b6108b3565b6040516102d89190612e12565b60405180910390f35b6102e961096b565b005b6102f36109f3565b6040516103009190612aee565b60405180910390f35b610311610a1d565b60405161031e9190612b70565b60405180910390f35b610341600480360381019061033c91906125e4565b610aaf565b005b61035d60048036038101906103589190612569565b610ac5565b005b61037960048036038101906103749190612715565b610b27565b6040516103869190612b70565b60405180910390f35b6103a960048036038101906103a4919061265c565b610b39565b005b6103c560048036038101906103c091906124de565b610bce565b6040516103d29190612b55565b60405180910390f35b6103f560048036038101906103f091906124b5565b610c62565b005b600061040282610d5a565b9050919050565b60606000805461041890613068565b80601f016020809104026020016040519081016040528092919081815260200182805461044490613068565b80156104915780601f1061046657610100808354040283529160200191610491565b820191906000526020600020905b81548152906001019060200180831161047457829003601f168201915b5050505050905090565b60006104a682610dd4565b6104e5576040517f08c379a00000000000000000000000000000000000000000000000000000000081526004016104dc90612d32565b60405180910390fd5b6004600083815260200190815260200160002060009054906101000a900473ffffffffffffffffffffffffffffffffffffffff169050919050565b600061052b82610801565b90508073ffffffffffffffffffffffffffffffffffffffff168373ffffffffffffffffffffffffffffffffffffffff16141561059c576040517f08c379a000000000000000000000000000000000000000000000000000000000815260040161059390612db2565b60405180910390fd5b8073ffffffffffffffffffffffffffffffffffffffff166105bb610e40565b73ffffffffffffffffffffffffffffffffffffffff1614806105ea57506105e9816105e4610e40565b610bce565b5b610629576040517f08c379a000000000000000000000000000000000000000000000000000000000815260040161062090612c72565b60405180910390fd5b6106338383610e48565b505050565b6000600880549050905090565b610656610650610e40565b82610f01565b610695576040517f08c379a000000000000000000000000000000000000000000000000000000000815260040161068c90612dd2565b60405180910390fd5b6106a0838383610fdf565b505050565b60006106b0836108b3565b82106106f1576040517f08c379a00000000000000000000000000000000000000000000000000000000081526004016106e890612b92565b60405180910390fd5b600660008473ffffffffffffffffffffffffffffffffffffffff1673ffffffffffffffffffffffffffffffffffffffff168152602001908152602001600020600083815260200190815260200160002054905092915050565b61076583838360405180602001604052806000815250610ac5565b505050565b6000610774610638565b82106107b5576040517f08c379a00000000000000000000000000000000000000000000000000000000081526004016107ac90612df2565b60405180910390fd5b600882815481106107ef577f4e487b7100000000000000000000000000000000000000000000000000000000600052603260045260246000fd5b90600052602060002001549050919050565b6000806002600084815260200190815260200160002060009054906101000a900473ffffffffffffffffffffffffffffffffffffffff169050600073ffffffffffffffffffffffffffffffffffffffff168173ffffffffffffffffffffffffffffffffffffffff1614156108aa576040517f08c379a00000000000000000000000000000000000000000000000000000000081526004016108a190612cb2565b60405180910390fd5b80915050919050565b60008073ffffffffffffffffffffffffffffffffffffffff168273ffffffffffffffffffffffffffffffffffffffff161415610924576040517f08c379a000000000000000000000000000000000000000000000000000000000815260040161091b90612c92565b60405180910390fd5b600360008373ffffffffffffffffffffffffffffffffffffffff1673ffffffffffffffffffffffffffffffffffffffff168152602001908152602001600020549050919050565b610973610e40565b73ffffffffffffffffffffffffffffffffffffffff166109916109f3565b73ffffffffffffffffffffffffffffffffffffffff16146109e7576040517f08c379a00000000000000000000000000000000000000000000000000000000081526004016109de90612d52565b60405180910390fd5b6109f1600061123b565b565b6000600b60009054906101000a900473ffffffffffffffffffffffffffffffffffffffff16905090565b606060018054610a2c90613068565b80601f0160208091040260200160405190810160405280929190818152602001828054610a5890613068565b8015610aa55780601f10610a7a57610100808354040283529160200191610aa5565b820191906000526020600020905b815481529060010190602001808311610a8857829003601f168201915b5050505050905090565b610ac1610aba610e40565b8383611301565b5050565b610ad6610ad0610e40565b83610f01565b610b15576040517f08c379a0000000000000000000000000000000000000000000000000000000008152600401610b0c90612dd2565b60405180910390fd5b610b218484848461146e565b50505050565b6060610b32826114ca565b9050919050565b610b41610e40565b73ffffffffffffffffffffffffffffffffffffffff16610b5f6109f3565b73ffffffffffffffffffffffffffffffffffffffff1614610bb5576040517f08c379a0000000000000000000000000000000000000000000000000000000008152600401610bac90612d52565b60405180910390fd5b610bbf838361161c565b610bc9828261163a565b505050565b6000600560008473ffffffffffffffffffffffffffffffffffffffff1673ffffffffffffffffffffffffffffffffffffffff16815260200190815260200160002060008373ffffffffffffffffffffffffffffffffffffffff1673ffffffffffffffffffffffffffffffffffffffff16815260200190815260200160002060009054906101000a900460ff16905092915050565b610c6a610e40565b73ffffffffffffffffffffffffffffffffffffffff16610c886109f3565b73ffffffffffffffffffffffffffffffffffffffff1614610cde576040517f08c379a0000000000000000000000000000000000000000000000000000000008152600401610cd590612d52565b60405180910390fd5b600073ffffffffffffffffffffffffffffffffffffffff168173ffffffffffffffffffffffffffffffffffffffff161415610d4e576040517f08c379a0000000000000000000000000000000000000000000000000000000008152600401610d4590612bd2565b60405180910390fd5b610d578161123b565b50565b60007f780e9d63000000000000000000000000000000000000000000000000000000007bffffffffffffffffffffffffffffffffffffffffffffffffffffffff1916827bffffffffffffffffffffffffffffffffffffffffffffffffffffffff19161480610dcd5750610dcc826116ae565b5b9050919050565b60008073ffffffffffffffffffffffffffffffffffffffff166002600084815260200190815260200160002060009054906101000a900473ffffffffffffffffffffffffffffffffffffffff1673ffffffffffffffffffffffffffffffffffffffff1614159050919050565b600033905090565b816004600083815260200190815260200160002060006101000a81548173ffffffffffffffffffffffffffffffffffffffff021916908373ffffffffffffffffffffffffffffffffffffffff160217905550808273ffffffffffffffffffffffffffffffffffffffff16610ebb83610801565b73ffffffffffffffffffffffffffffffffffffffff167f8c5be1e5ebec7d5bd14f71427d1e84f3dd0314c0f7b2291e5b200ac8c7c3b92560405160405180910390a45050565b6000610f0c82610dd4565b610f4b576040517f08c379a0000000000000000000000000000000000000000000000000000000008152600401610f4290612c52565b60405180910390fd5b6000610f5683610801565b90508073ffffffffffffffffffffffffffffffffffffffff168473ffffffffffffffffffffffffffffffffffffffff161480610fc557508373ffffffffffffffffffffffffffffffffffffffff16610fad8461049b565b73ffffffffffffffffffffffffffffffffffffffff16145b80610fd65750610fd58185610bce565b5b91505092915050565b8273ffffffffffffffffffffffffffffffffffffffff16610fff82610801565b73ffffffffffffffffffffffffffffffffffffffff1614611055576040517f08c379a000000000000000000000000000000000000000000000000000000000815260040161104c90612d72565b60405180910390fd5b600073ffffffffffffffffffffffffffffffffffffffff168273ffffffffffffffffffffffffffffffffffffffff1614156110c5576040517f08c379a00000000000000000000000000000000000000000000000000000000081526004016110bc90612c12565b60405180910390fd5b6110d0838383611790565b6110db600082610e48565b6001600360008573ffffffffffffffffffffffffffffffffffffffff1673ffffffffffffffffffffffffffffffffffffffff168152602001908152602001600020600082825461112b9190612f7e565b925050819055506001600360008473ffffffffffffffffffffffffffffffffffffffff1673ffffffffffffffffffffffffffffffffffffffff16815260200190815260200160002060008282546111829190612ef7565b92505081905550816002600083815260200190815260200160002060006101000a81548173ffffffffffffffffffffffffffffffffffffffff021916908373ffffffffffffffffffffffffffffffffffffffff160217905550808273ffffffffffffffffffffffffffffffffffffffff168473ffffffffffffffffffffffffffffffffffffffff167fddf252ad1be2c89b69c2b068fc378daa952ba7f163c4a11628f55a4df523b3ef60405160405180910390a4505050565b6000600b60009054906101000a900473ffffffffffffffffffffffffffffffffffffffff16905081600b60006101000a81548173ffffffffffffffffffffffffffffffffffffffff021916908373ffffffffffffffffffffffffffffffffffffffff1602179055508173ffffffffffffffffffffffffffffffffffffffff168173ffffffffffffffffffffffffffffffffffffffff167f8be0079c531659141344cd1fd0a4f28419497f9722a3daafe3b4186f6b6457e060405160405180910390a35050565b8173ffffffffffffffffffffffffffffffffffffffff168373ffffffffffffffffffffffffffffffffffffffff161415611370576040517f08c379a000000000000000000000000000000000000000000000000000000000815260040161136790612c32565b60405180910390fd5b80600560008573ffffffffffffffffffffffffffffffffffffffff1673ffffffffffffffffffffffffffffffffffffffff16815260200190815260200160002060008473ffffffffffffffffffffffffffffffffffffffff1673ffffffffffffffffffffffffffffffffffffffff16815260200190815260200160002060006101000a81548160ff0219169083151502179055508173ffffffffffffffffffffffffffffffffffffffff168373ffffffffffffffffffffffffffffffffffffffff167f17307eab39ab6107e8899845ad3d59bd9653f200f220920489ca2b5937696c31836040516114619190612b55565b60405180910390a3505050565b611479848484610fdf565b611485848484846117a0565b6114c4576040517f08c379a00000000000000000000000000000000000000000000000000000000081526004016114bb90612bb2565b60405180910390fd5b50505050565b60606114d582610dd4565b611514576040517f08c379a000000000000000000000000000000000000000000000000000000000815260040161150b90612d12565b60405180910390fd5b6000600a6000848152602001908152602001600020805461153490613068565b80601f016020809104026020016040519081016040528092919081815260200182805461156090613068565b80156115ad5780601f10611582576101008083540402835291602001916115ad565b820191906000526020600020905b81548152906001019060200180831161159057829003601f168201915b5050505050905060006115be611937565b90506000815114156115d4578192505050611617565b6000825111156116095780826040516020016115f1929190612aca565b60405160208183030381529060405292505050611617565b6116128461194e565b925050505b919050565b6116368282604051806020016040528060008152506119f5565b5050565b61164382610dd4565b611682576040517f08c379a000000000000000000000000000000000000000000000000000000000815260040161167990612cd2565b60405180910390fd5b80600a600084815260200190815260200160002090805190602001906116a99291906122d9565b505050565b60007f80ac58cd000000000000000000000000000000000000000000000000000000007bffffffffffffffffffffffffffffffffffffffffffffffffffffffff1916827bffffffffffffffffffffffffffffffffffffffffffffffffffffffff1916148061177957507f5b5e139f000000000000000000000000000000000000000000000000000000007bffffffffffffffffffffffffffffffffffffffffffffffffffffffff1916827bffffffffffffffffffffffffffffffffffffffffffffffffffffffff1916145b80611789575061178882611a50565b5b9050919050565b61179b838383611aba565b505050565b60006117c18473ffffffffffffffffffffffffffffffffffffffff16611bce565b1561192a578373ffffffffffffffffffffffffffffffffffffffff1663150b7a026117ea610e40565b8786866040518563ffffffff1660e01b815260040161180c9493929190612b09565b602060405180830381600087803b15801561182657600080fd5b505af192505050801561185757506040513d601f19601f8201168201806040525081019061185491906126ec565b60015b6118da573d8060008114611887576040519150601f19603f3d011682016040523d82523d6000602084013e61188c565b606091505b506000815114156118d2576040517f08c379a00000000000000000000000000000000000000000000000000000000081526004016118c990612bb2565b60405180910390fd5b805181602001fd5b63150b7a0260e01b7bffffffffffffffffffffffffffffffffffffffffffffffffffffffff1916817bffffffffffffffffffffffffffffffffffffffffffffffffffffffff19161491505061192f565b600190505b949350505050565b606060405180602001604052806000815250905090565b606061195982610dd4565b611998576040517f08c379a000000000000000000000000000000000000000000000000000000000815260040161198f90612d92565b60405180910390fd5b60006119a2611937565b905060008151116119c257604051806020016040528060008152506119ed565b806119cc84611be1565b6040516020016119dd929190612aca565b6040516020818303038152906040525b915050919050565b6119ff8383611d8e565b611a0c60008484846117a0565b611a4b576040517f08c379a0000000000000000000000000000000000000000000000000000000008152600401611a4290612bb2565b60405180910390fd5b505050565b60007f01ffc9a7000000000000000000000000000000000000000000000000000000007bffffffffffffffffffffffffffffffffffffffffffffffffffffffff1916827bffffffffffffffffffffffffffffffffffffffffffffffffffffffff1916149050919050565b611ac5838383611f5c565b600073ffffffffffffffffffffffffffffffffffffffff168373ffffffffffffffffffffffffffffffffffffffff161415611b0857611b0381611f61565b611b47565b8173ffffffffffffffffffffffffffffffffffffffff168373ffffffffffffffffffffffffffffffffffffffff1614611b4657611b458382611faa565b5b5b600073ffffffffffffffffffffffffffffffffffffffff168273ffffffffffffffffffffffffffffffffffffffff161415611b8a57611b8581612117565b611bc9565b8273ffffffffffffffffffffffffffffffffffffffff168273ffffffffffffffffffffffffffffffffffffffff1614611bc857611bc7828261225a565b5b5b505050565b600080823b905060008111915050919050565b60606000821415611c29576040518060400160405280600181526020017f30000000000000000000000000000000000000000000000000000000000000008152509050611d89565b600082905060005b60008214611c5b578080611c44906130cb565b915050600a82611c549190612f4d565b9150611c31565b60008167ffffffffffffffff811115611c9d577f4e487b7100000000000000000000000000000000000000000000000000000000600052604160045260246000fd5b6040519080825280601f01601f191660200182016040528015611ccf5781602001600182028036833780820191505090505b5090505b60008514611d8257600182611ce89190612f7e565b9150600a85611cf79190613114565b6030611d039190612ef7565b60f81b818381518110611d3f577f4e487b7100000000000000000000000000000000000000000000000000000000600052603260045260246000fd5b60200101907effffffffffffffffffffffffffffffffffffffffffffffffffffffffffffff1916908160001a905350600a85611d7b9190612f4d565b9450611cd3565b8093505050505b919050565b600073ffffffffffffffffffffffffffffffffffffffff168273ffffffffffffffffffffffffffffffffffffffff161415611dfe576040517f08c379a0000000000000000000000000000000000000000000000000000000008152600401611df590612cf2565b60405180910390fd5b611e0781610dd4565b15611e47576040517f08c379a0000000000000000000000000000000000000000000000000000000008152600401611e3e90612bf2565b60405180910390fd5b611e5360008383611790565b6001600360008473ffffffffffffffffffffffffffffffffffffffff1673ffffffffffffffffffffffffffffffffffffffff1681526020019081526020016000206000828254611ea39190612ef7565b92505081905550816002600083815260200190815260200160002060006101000a81548173ffffffffffffffffffffffffffffffffffffffff021916908373ffffffffffffffffffffffffffffffffffffffff160217905550808273ffffffffffffffffffffffffffffffffffffffff16600073ffffffffffffffffffffffffffffffffffffffff167fddf252ad1be2c89b69c2b068fc378daa952ba7f163c4a11628f55a4df523b3ef60405160405180910390a45050565b505050565b6008805490506009600083815260200190815260200160002081905550600881908060018154018082558091505060019003906000526020600020016000909190919091505550565b60006001611fb7846108b3565b611fc19190612f7e565b90506000600760008481526020019081526020016000205490508181146120a6576000600660008673ffffffffffffffffffffffffffffffffffffffff1673ffffffffffffffffffffffffffffffffffffffff168152602001908152602001600020600084815260200190815260200160002054905080600660008773ffffffffffffffffffffffffffffffffffffffff1673ffffffffffffffffffffffffffffffffffffffff168152602001908152602001600020600084815260200190815260200160002081905550816007600083815260200190815260200160002081905550505b6007600084815260200190815260200160002060009055600660008573ffffffffffffffffffffffffffffffffffffffff1673ffffffffffffffffffffffffffffffffffffffff16815260200190815260200160002060008381526020019081526020016000206000905550505050565b6000600160088054905061212b9190612f7e565b9050600060096000848152602001908152602001600020549050600060088381548110612181577f4e487b7100000000000000000000000000000000000000000000000000000000600052603260045260246000fd5b9060005260206000200154905080600883815481106121c9577f4e487b7100000000000000000000000000000000000000000000000000000000600052603260045260246000fd5b90600052602060002001819055508160096000838152602001908152602001600020819055506009600085815260200190815260200160002060009055600880548061223e577f4e487b7100000000000000000000000000000000000000000000000000000000600052603160045260246000fd5b6001900381819060005260206000200160009055905550505050565b6000612265836108b3565b905081600660008573ffffffffffffffffffffffffffffffffffffffff1673ffffffffffffffffffffffffffffffffffffffff168152602001908152602001600020600083815260200190815260200160002081905550806007600084815260200190815260200160002081905550505050565b8280546122e590613068565b90600052602060002090601f016020900481019282612307576000855561234e565b82601f1061232057805160ff191683800117855561234e565b8280016001018555821561234e579182015b8281111561234d578251825591602001919060010190612332565b5b50905061235b919061235f565b5090565b5b80821115612378576000816000905550600101612360565b5090565b600061238f61238a84612e52565b612e2d565b9050828152602081018484840111156123a757600080fd5b6123b2848285613026565b509392505050565b60006123cd6123c884612e83565b612e2d565b9050828152602081018484840111156123e557600080fd5b6123f0848285613026565b509392505050565b600081359050612407816137a6565b92915050565b60008135905061241c816137bd565b92915050565b600081359050612431816137d4565b92915050565b600081519050612446816137d4565b92915050565b600082601f83011261245d57600080fd5b813561246d84826020860161237c565b91505092915050565b600082601f83011261248757600080fd5b81356124978482602086016123ba565b91505092915050565b6000813590506124af816137eb565b92915050565b6000602082840312156124c757600080fd5b60006124d5848285016123f8565b91505092915050565b600080604083850312156124f157600080fd5b60006124ff858286016123f8565b9250506020612510858286016123f8565b9150509250929050565b60008060006060848603121561252f57600080fd5b600061253d868287016123f8565b935050602061254e868287016123f8565b925050604061255f868287016124a0565b9150509250925092565b6000806000806080858703121561257f57600080fd5b600061258d878288016123f8565b945050602061259e878288016123f8565b93505060406125af878288016124a0565b925050606085013567ffffffffffffffff8111156125cc57600080fd5b6125d88782880161244c565b91505092959194509250565b600080604083850312156125f757600080fd5b6000612605858286016123f8565b92505060206126168582860161240d565b9150509250929050565b6000806040838503121561263357600080fd5b6000612641858286016123f8565b9250506020612652858286016124a0565b9150509250929050565b60008060006060848603121561267157600080fd5b600061267f868287016123f8565b9350506020612690868287016124a0565b925050604084013567ffffffffffffffff8111156126ad57600080fd5b6126b986828701612476565b9150509250925092565b6000602082840312156126d557600080fd5b60006126e384828501612422565b91505092915050565b6000602082840312156126fe57600080fd5b600061270c84828501612437565b91505092915050565b60006020828403121561272757600080fd5b6000612735848285016124a0565b91505092915050565b61274781612fb2565b82525050565b61275681612fc4565b82525050565b600061276782612eb4565b6127718185612eca565b9350612781818560208601613035565b61278a81613201565b840191505092915050565b60006127a082612ebf565b6127aa8185612edb565b93506127ba818560208601613035565b6127c381613201565b840191505092915050565b60006127d982612ebf565b6127e38185612eec565b93506127f3818560208601613035565b80840191505092915050565b600061280c602b83612edb565b915061281782613212565b604082019050919050565b600061282f603283612edb565b915061283a82613261565b604082019050919050565b6000612852602683612edb565b915061285d826132b0565b604082019050919050565b6000612875601c83612edb565b9150612880826132ff565b602082019050919050565b6000612898602483612edb565b91506128a382613328565b604082019050919050565b60006128bb601983612edb565b91506128c682613377565b602082019050919050565b60006128de602c83612edb565b91506128e9826133a0565b604082019050919050565b6000612901603883612edb565b915061290c826133ef565b604082019050919050565b6000612924602a83612edb565b915061292f8261343e565b604082019050919050565b6000612947602983612edb565b91506129528261348d565b604082019050919050565b600061296a602e83612edb565b9150612975826134dc565b604082019050919050565b600061298d602083612edb565b91506129988261352b565b602082019050919050565b60006129b0603183612edb565b91506129bb82613554565b604082019050919050565b60006129d3602c83612edb565b91506129de826135a3565b604082019050919050565b60006129f6602083612edb565b9150612a01826135f2565b602082019050919050565b6000612a19602983612edb565b9150612a248261361b565b604082019050919050565b6000612a3c602f83612edb565b9150612a478261366a565b604082019050919050565b6000612a5f602183612edb565b9150612a6a826136b9565b604082019050919050565b6000612a82603183612edb565b9150612a8d82613708565b604082019050919050565b6000612aa5602c83612edb565b9150612ab082613757565b604082019050919050565b612ac48161301c565b82525050565b6000612ad682856127ce565b9150612ae282846127ce565b91508190509392505050565b6000602082019050612b03600083018461273e565b92915050565b6000608082019050612b1e600083018761273e565b612b2b602083018661273e565b612b386040830185612abb565b8181036060830152612b4a818461275c565b905095945050505050565b6000602082019050612b6a600083018461274d565b92915050565b60006020820190508181036000830152612b8a8184612795565b905092915050565b60006020820190508181036000830152612bab816127ff565b9050919050565b60006020820190508181036000830152612bcb81612822565b9050919050565b60006020820190508181036000830152612beb81612845565b9050919050565b60006020820190508181036000830152612c0b81612868565b9050919050565b60006020820190508181036000830152612c2b8161288b565b9050919050565b60006020820190508181036000830152612c4b816128ae565b9050919050565b60006020820190508181036000830152612c6b816128d1565b9050919050565b60006020820190508181036000830152612c8b816128f4565b9050919050565b60006020820190508181036000830152612cab81612917565b9050919050565b60006020820190508181036000830152612ccb8161293a565b9050919050565b60006020820190508181036000830152612ceb8161295d565b9050919050565b60006020820190508181036000830152612d0b81612980565b9050919050565b60006020820190508181036000830152612d2b816129a3565b9050919050565b60006020820190508181036000830152612d4b816129c6565b9050919050565b60006020820190508181036000830152612d6b816129e9565b9050919050565b60006020820190508181036000830152612d8b81612a0c565b9050919050565b60006020820190508181036000830152612dab81612a2f565b9050919050565b60006020820190508181036000830152612dcb81612a52565b9050919050565b60006020820190508181036000830152612deb81612a75565b9050919050565b60006020820190508181036000830152612e0b81612a98565b9050919050565b6000602082019050612e276000830184612abb565b92915050565b6000612e37612e48565b9050612e43828261309a565b919050565b6000604051905090565b600067ffffffffffffffff821115612e6d57612e6c6131d2565b5b612e7682613201565b9050602081019050919050565b600067ffffffffffffffff821115612e9e57612e9d6131d2565b5b612ea782613201565b9050602081019050919050565b600081519050919050565b600081519050919050565b600082825260208201905092915050565b600082825260208201905092915050565b600081905092915050565b6000612f028261301c565b9150612f0d8361301c565b9250827fffffffffffffffffffffffffffffffffffffffffffffffffffffffffffffffff03821115612f4257612f41613145565b5b828201905092915050565b6000612f588261301c565b9150612f638361301c565b925082612f7357612f72613174565b5b828204905092915050565b6000612f898261301c565b9150612f948361301c565b925082821015612fa757612fa6613145565b5b828203905092915050565b6000612fbd82612ffc565b9050919050565b60008115159050919050565b60007fffffffff0000000000000000000000000000000000000000000000000000000082169050919050565b600073ffffffffffffffffffffffffffffffffffffffff82169050919050565b6000819050919050565b82818337600083830152505050565b60005b83811015613053578082015181840152602081019050613038565b83811115613062576000848401525b50505050565b6000600282049050600182168061308057607f821691505b60208210811415613094576130936131a3565b5b50919050565b6130a382613201565b810181811067ffffffffffffffff821117156130c2576130c16131d2565b5b80604052505050565b60006130d68261301c565b91507fffffffffffffffffffffffffffffffffffffffffffffffffffffffffffffffff82141561310957613108613145565b5b600182019050919050565b600061311f8261301c565b915061312a8361301c565b92508261313a57613139613174565b5b828206905092915050565b7f4e487b7100000000000000000000000000000000000000000000000000000000600052601160045260246000fd5b7f4e487b7100000000000000000000000000000000000000000000000000000000600052601260045260246000fd5b7f4e487b7100000000000000000000000000000000000000000000000000000000600052602260045260246000fd5b7f4e487b7100000000000000000000000000000000000000000000000000000000600052604160045260246000fd5b6000601f19601f8301169050919050565b7f455243373231456e756d657261626c653a206f776e657220696e646578206f7560008201527f74206f6620626f756e6473000000000000000000000000000000000000000000602082015250565b7f4552433732313a207472616e7366657220746f206e6f6e20455243373231526560008201527f63656976657220696d706c656d656e7465720000000000000000000000000000602082015250565b7f4f776e61626c653a206e6577206f776e657220697320746865207a65726f206160008201527f6464726573730000000000000000000000000000000000000000000000000000602082015250565b7f4552433732313a20746f6b656e20616c7265616479206d696e74656400000000600082015250565b7f4552433732313a207472616e7366657220746f20746865207a65726f2061646460008201527f7265737300000000000000000000000000000000000000000000000000000000602082015250565b7f4552433732313a20617070726f766520746f2063616c6c657200000000000000600082015250565b7f4552433732313a206f70657261746f7220717565727920666f72206e6f6e657860008201527f697374656e7420746f6b656e0000000000000000000000000000000000000000602082015250565b7f4552433732313a20617070726f76652063616c6c6572206973206e6f74206f7760008201527f6e6572206e6f7220617070726f76656420666f7220616c6c0000000000000000602082015250565b7f4552433732313a2062616c616e636520717565727920666f7220746865207a6560008201527f726f206164647265737300000000000000000000000000000000000000000000602082015250565b7f4552433732313a206f776e657220717565727920666f72206e6f6e657869737460008201527f656e7420746f6b656e0000000000000000000000000000000000000000000000602082015250565b7f45524337323155524953746f726167653a2055524920736574206f66206e6f6e60008201527f6578697374656e7420746f6b656e000000000000000000000000000000000000602082015250565b7f4552433732313a206d696e7420746f20746865207a65726f2061646472657373600082015250565b7f45524337323155524953746f726167653a2055524920717565727920666f722060008201527f6e6f6e6578697374656e7420746f6b656e000000000000000000000000000000602082015250565b7f4552433732313a20617070726f76656420717565727920666f72206e6f6e657860008201527f697374656e7420746f6b656e0000000000000000000000000000000000000000602082015250565b7f4f776e61626c653a2063616c6c6572206973206e6f7420746865206f776e6572600082015250565b7f4552433732313a207472616e73666572206f6620746f6b656e2074686174206960008201527f73206e6f74206f776e0000000000000000000000000000000000000000000000602082015250565b7f4552433732314d657461646174613a2055524920717565727920666f72206e6f60008201527f6e6578697374656e7420746f6b656e0000000000000000000000000000000000602082015250565b7f4552433732313a20617070726f76616c20746f2063757272656e74206f776e6560008201527f7200000000000000000000000000000000000000000000000000000000000000602082015250565b7f4552433732313a207472616e736665722063616c6c6572206973206e6f74206f60008201527f776e6572206e6f7220617070726f766564000000000000000000000000000000602082015250565b7f455243373231456e756d657261626c653a20676c6f62616c20696e646578206f60008201527f7574206f6620626f756e64730000000000000000000000000000000000000000602082015250565b6137af81612fb2565b81146137ba57600080fd5b50565b6137c681612fc4565b81146137d157600080fd5b50565b6137dd81612fd0565b81146137e857600080fd5b50565b6137f48161301c565b81146137ff57600080fd5b5056fea2646970667358221220cc8668e2b6d6287a2e73e2b8d5249752ba571b8f6474c6e85c503f088cac532364736f6c63430008020033",
  "immutableReferences": {},
  "source": "// SPDX-License-Identifier: MIT\npragma solidity ^0.8.2;\n\nimport \"@openzeppelin/contracts/token/ERC721/ERC721.sol\";\nimport \"@openzeppelin/contracts/token/ERC721/extensions/ERC721Enumerable.sol\";\nimport \"@openzeppelin/contracts/token/ERC721/extensions/ERC721URIStorage.sol\";\nimport \"@openzeppelin/contracts/access/Ownable.sol\";\n\ncontract LegalDoc is ERC721, ERC721Enumerable, ERC721URIStorage, Ownable {\n    constructor() ERC721(\"Legal Docs\", \"LDOC\") {}\n\n    function safeMint(address to, uint256 tokenId, string memory uri)\n        public\n        onlyOwner\n    {\n        _safeMint(to, tokenId);\n        _setTokenURI(tokenId, uri);\n    }\n\n    // The following functions are overrides required by Solidity.\n\n    function _beforeTokenTransfer(address from, address to, uint256 tokenId)\n        internal\n        override(ERC721, ERC721Enumerable)\n    {\n        super._beforeTokenTransfer(from, to, tokenId);\n    }\n\n    function _burn(uint256 tokenId) internal override(ERC721, ERC721URIStorage) {\n        super._burn(tokenId);\n    }\n\n    function tokenURI(uint256 tokenId)\n        public\n        view\n        override(ERC721, ERC721URIStorage)\n        returns (string memory)\n    {\n        return super.tokenURI(tokenId);\n    }\n\n    function supportsInterface(bytes4 interfaceId)\n        public\n        view\n        override(ERC721, ERC721Enumerable)\n        returns (bool)\n    {\n        return super.supportsInterface(interfaceId);\n    }\n}\n\n//Rinkeby address: 0xEafFC31CA867a1c55E41cc883fcA56022B318527\n",
  "sourcePath": "/home/johnlaptop2/legaldoc-with-gov/contracts/LegalDoc.sol",
  "compiler": {
    "name": "solc",
    "version": "0.8.2+commit.661d1103.Emscripten.clang"
  },
  "schemaVersion": "3.4.3",
  "updatedAt": "2021-12-28T23:17:00.994Z",
  "networkType": "ethereum",
  "devdoc": {
    "kind": "dev",
    "methods": {
      "approve(address,uint256)": {
        "details": "See {IERC721-approve}."
      },
      "balanceOf(address)": {
        "details": "See {IERC721-balanceOf}."
      },
      "getApproved(uint256)": {
        "details": "See {IERC721-getApproved}."
      },
      "isApprovedForAll(address,address)": {
        "details": "See {IERC721-isApprovedForAll}."
      },
      "name()": {
        "details": "See {IERC721Metadata-name}."
      },
      "owner()": {
        "details": "Returns the address of the current owner."
      },
      "ownerOf(uint256)": {
        "details": "See {IERC721-ownerOf}."
      },
      "renounceOwnership()": {
        "details": "Leaves the contract without owner. It will not be possible to call `onlyOwner` functions anymore. Can only be called by the current owner. NOTE: Renouncing ownership will leave the contract without an owner, thereby removing any functionality that is only available to the owner."
      },
      "safeTransferFrom(address,address,uint256)": {
        "details": "See {IERC721-safeTransferFrom}."
      },
      "safeTransferFrom(address,address,uint256,bytes)": {
        "details": "See {IERC721-safeTransferFrom}."
      },
      "setApprovalForAll(address,bool)": {
        "details": "See {IERC721-setApprovalForAll}."
      },
      "symbol()": {
        "details": "See {IERC721Metadata-symbol}."
      },
      "tokenByIndex(uint256)": {
        "details": "See {IERC721Enumerable-tokenByIndex}."
      },
      "tokenOfOwnerByIndex(address,uint256)": {
        "details": "See {IERC721Enumerable-tokenOfOwnerByIndex}."
      },
      "totalSupply()": {
        "details": "See {IERC721Enumerable-totalSupply}."
      },
      "transferFrom(address,address,uint256)": {
        "details": "See {IERC721-transferFrom}."
      },
      "transferOwnership(address)": {
        "details": "Transfers ownership of the contract to a new account (`newOwner`). Can only be called by the current owner."
      }
    },
    "version": 1
  },
  "userdoc": {
    "kind": "user",
    "methods": {},
    "version": 1
  }
}