{
  "contractName": "MyGovernor",
  "abi": [
    {
      "inputs": [
        {
          "internalType": "contract ERC20Votes",
          "name": "_token",
          "type": "address"
        }
      ],
      "stateMutability": "nonpayable",
      "type": "constructor"
    },
    {
      "anonymous": false,
      "inputs": [
        {
          "indexed": false,
          "internalType": "uint256",
          "name": "proposalId",
          "type": "uint256"
        }
      ],
      "name": "ProposalCanceled",
      "type": "event"
    },
    {
      "anonymous": false,
      "inputs": [
        {
          "indexed": false,
          "internalType": "uint256",
          "name": "proposalId",
          "type": "uint256"
        },
        {
          "indexed": false,
          "internalType": "address",
          "name": "proposer",
          "type": "address"
        },
        {
          "indexed": false,
          "internalType": "address[]",
          "name": "targets",
          "type": "address[]"
        },
        {
          "indexed": false,
          "internalType": "uint256[]",
          "name": "values",
          "type": "uint256[]"
        },
        {
          "indexed": false,
          "internalType": "string[]",
          "name": "signatures",
          "type": "string[]"
        },
        {
          "indexed": false,
          "internalType": "bytes[]",
          "name": "calldatas",
          "type": "bytes[]"
        },
        {
          "indexed": false,
          "internalType": "uint256",
          "name": "startBlock",
          "type": "uint256"
        },
        {
          "indexed": false,
          "internalType": "uint256",
          "name": "endBlock",
          "type": "uint256"
        },
        {
          "indexed": false,
          "internalType": "string",
          "name": "description",
          "type": "string"
        }
      ],
      "name": "ProposalCreated",
      "type": "event"
    },
    {
      "anonymous": false,
      "inputs": [
        {
          "indexed": false,
          "internalType": "uint256",
          "name": "proposalId",
          "type": "uint256"
        }
      ],
      "name": "ProposalExecuted",
      "type": "event"
    },
    {
      "anonymous": false,
      "inputs": [
        {
          "indexed": false,
          "internalType": "uint256",
          "name": "oldProposalThreshold",
          "type": "uint256"
        },
        {
          "indexed": false,
          "internalType": "uint256",
          "name": "newProposalThreshold",
          "type": "uint256"
        }
      ],
      "name": "ProposalThresholdSet",
      "type": "event"
    },
    {
      "anonymous": false,
      "inputs": [
        {
          "indexed": false,
          "internalType": "uint256",
          "name": "oldQuorumNumerator",
          "type": "uint256"
        },
        {
          "indexed": false,
          "internalType": "uint256",
          "name": "newQuorumNumerator",
          "type": "uint256"
        }
      ],
      "name": "QuorumNumeratorUpdated",
      "type": "event"
    },
    {
      "anonymous": false,
      "inputs": [
        {
          "indexed": true,
          "internalType": "address",
          "name": "voter",
          "type": "address"
        },
        {
          "indexed": false,
          "internalType": "uint256",
          "name": "proposalId",
          "type": "uint256"
        },
        {
          "indexed": false,
          "internalType": "uint8",
          "name": "support",
          "type": "uint8"
        },
        {
          "indexed": false,
          "internalType": "uint256",
          "name": "weight",
          "type": "uint256"
        },
        {
          "indexed": false,
          "internalType": "string",
          "name": "reason",
          "type": "string"
        }
      ],
      "name": "VoteCast",
      "type": "event"
    },
    {
      "anonymous": false,
      "inputs": [
        {
          "indexed": false,
          "internalType": "uint256",
          "name": "oldVotingDelay",
          "type": "uint256"
        },
        {
          "indexed": false,
          "internalType": "uint256",
          "name": "newVotingDelay",
          "type": "uint256"
        }
      ],
      "name": "VotingDelaySet",
      "type": "event"
    },
    {
      "anonymous": false,
      "inputs": [
        {
          "indexed": false,
          "internalType": "uint256",
          "name": "oldVotingPeriod",
          "type": "uint256"
        },
        {
          "indexed": false,
          "internalType": "uint256",
          "name": "newVotingPeriod",
          "type": "uint256"
        }
      ],
      "name": "VotingPeriodSet",
      "type": "event"
    },
    {
      "inputs": [],
      "name": "BALLOT_TYPEHASH",
      "outputs": [
        {
          "internalType": "bytes32",
          "name": "",
          "type": "bytes32"
        }
      ],
      "stateMutability": "view",
      "type": "function",
      "constant": true
    },
    {
      "inputs": [],
      "name": "COUNTING_MODE",
      "outputs": [
        {
          "internalType": "string",
          "name": "",
          "type": "string"
        }
      ],
      "stateMutability": "pure",
      "type": "function",
      "constant": true
    },
    {
      "inputs": [
        {
          "internalType": "uint256",
          "name": "proposalId",
          "type": "uint256"
        },
        {
          "internalType": "uint8",
          "name": "support",
          "type": "uint8"
        }
      ],
      "name": "castVote",
      "outputs": [
        {
          "internalType": "uint256",
          "name": "",
          "type": "uint256"
        }
      ],
      "stateMutability": "nonpayable",
      "type": "function"
    },
    {
      "inputs": [
        {
          "internalType": "uint256",
          "name": "proposalId",
          "type": "uint256"
        },
        {
          "internalType": "uint8",
          "name": "support",
          "type": "uint8"
        },
        {
          "internalType": "uint8",
          "name": "v",
          "type": "uint8"
        },
        {
          "internalType": "bytes32",
          "name": "r",
          "type": "bytes32"
        },
        {
          "internalType": "bytes32",
          "name": "s",
          "type": "bytes32"
        }
      ],
      "name": "castVoteBySig",
      "outputs": [
        {
          "internalType": "uint256",
          "name": "",
          "type": "uint256"
        }
      ],
      "stateMutability": "nonpayable",
      "type": "function"
    },
    {
      "inputs": [
        {
          "internalType": "uint256",
          "name": "proposalId",
          "type": "uint256"
        },
        {
          "internalType": "uint8",
          "name": "support",
          "type": "uint8"
        },
        {
          "internalType": "string",
          "name": "reason",
          "type": "string"
        }
      ],
      "name": "castVoteWithReason",
      "outputs": [
        {
          "internalType": "uint256",
          "name": "",
          "type": "uint256"
        }
      ],
      "stateMutability": "nonpayable",
      "type": "function"
    },
    {
      "inputs": [
        {
          "internalType": "address[]",
          "name": "targets",
          "type": "address[]"
        },
        {
          "internalType": "uint256[]",
          "name": "values",
          "type": "uint256[]"
        },
        {
          "internalType": "bytes[]",
          "name": "calldatas",
          "type": "bytes[]"
        },
        {
          "internalType": "bytes32",
          "name": "descriptionHash",
          "type": "bytes32"
        }
      ],
      "name": "execute",
      "outputs": [
        {
          "internalType": "uint256",
          "name": "",
          "type": "uint256"
        }
      ],
      "stateMutability": "payable",
      "type": "function",
      "payable": true
    },
    {
      "inputs": [
        {
          "internalType": "uint256",
          "name": "proposalId",
          "type": "uint256"
        },
        {
          "internalType": "address",
          "name": "account",
          "type": "address"
        }
      ],
      "name": "hasVoted",
      "outputs": [
        {
          "internalType": "bool",
          "name": "",
          "type": "bool"
        }
      ],
      "stateMutability": "view",
      "type": "function",
      "constant": true
    },
    {
      "inputs": [
        {
          "internalType": "address[]",
          "name": "targets",
          "type": "address[]"
        },
        {
          "internalType": "uint256[]",
          "name": "values",
          "type": "uint256[]"
        },
        {
          "internalType": "bytes[]",
          "name": "calldatas",
          "type": "bytes[]"
        },
        {
          "internalType": "bytes32",
          "name": "descriptionHash",
          "type": "bytes32"
        }
      ],
      "name": "hashProposal",
      "outputs": [
        {
          "internalType": "uint256",
          "name": "",
          "type": "uint256"
        }
      ],
      "stateMutability": "pure",
      "type": "function",
      "constant": true
    },
    {
      "inputs": [],
      "name": "name",
      "outputs": [
        {
          "internalType": "string",
          "name": "",
          "type": "string"
        }
      ],
      "stateMutability": "view",
      "type": "function",
      "constant": true
    },
    {
      "inputs": [
        {
          "internalType": "uint256",
          "name": "proposalId",
          "type": "uint256"
        }
      ],
      "name": "proposalDeadline",
      "outputs": [
        {
          "internalType": "uint256",
          "name": "",
          "type": "uint256"
        }
      ],
      "stateMutability": "view",
      "type": "function",
      "constant": true
    },
    {
      "inputs": [
        {
          "internalType": "uint256",
          "name": "proposalId",
          "type": "uint256"
        }
      ],
      "name": "proposalSnapshot",
      "outputs": [
        {
          "internalType": "uint256",
          "name": "",
          "type": "uint256"
        }
      ],
      "stateMutability": "view",
      "type": "function",
      "constant": true
    },
    {
      "inputs": [
        {
          "internalType": "uint256",
          "name": "proposalId",
          "type": "uint256"
        }
      ],
      "name": "proposalVotes",
      "outputs": [
        {
          "internalType": "uint256",
          "name": "againstVotes",
          "type": "uint256"
        },
        {
          "internalType": "uint256",
          "name": "forVotes",
          "type": "uint256"
        },
        {
          "internalType": "uint256",
          "name": "abstainVotes",
          "type": "uint256"
        }
      ],
      "stateMutability": "view",
      "type": "function",
      "constant": true
    },
    {
      "inputs": [
        {
          "internalType": "address[]",
          "name": "targets",
          "type": "address[]"
        },
        {
          "internalType": "uint256[]",
          "name": "values",
          "type": "uint256[]"
        },
        {
          "internalType": "bytes[]",
          "name": "calldatas",
          "type": "bytes[]"
        },
        {
          "internalType": "string",
          "name": "description",
          "type": "string"
        }
      ],
      "name": "propose",
      "outputs": [
        {
          "internalType": "uint256",
          "name": "",
          "type": "uint256"
        }
      ],
      "stateMutability": "nonpayable",
      "type": "function"
    },
    {
      "inputs": [],
      "name": "quorumDenominator",
      "outputs": [
        {
          "internalType": "uint256",
          "name": "",
          "type": "uint256"
        }
      ],
      "stateMutability": "view",
      "type": "function",
      "constant": true
    },
    {
      "inputs": [],
      "name": "quorumNumerator",
      "outputs": [
        {
          "internalType": "uint256",
          "name": "",
          "type": "uint256"
        }
      ],
      "stateMutability": "view",
      "type": "function",
      "constant": true
    },
    {
      "inputs": [
        {
          "internalType": "uint256",
          "name": "newProposalThreshold",
          "type": "uint256"
        }
      ],
      "name": "setProposalThreshold",
      "outputs": [],
      "stateMutability": "nonpayable",
      "type": "function"
    },
    {
      "inputs": [
        {
          "internalType": "uint256",
          "name": "newVotingDelay",
          "type": "uint256"
        }
      ],
      "name": "setVotingDelay",
      "outputs": [],
      "stateMutability": "nonpayable",
      "type": "function"
    },
    {
      "inputs": [
        {
          "internalType": "uint256",
          "name": "newVotingPeriod",
          "type": "uint256"
        }
      ],
      "name": "setVotingPeriod",
      "outputs": [],
      "stateMutability": "nonpayable",
      "type": "function"
    },
    {
      "inputs": [
        {
          "internalType": "uint256",
          "name": "proposalId",
          "type": "uint256"
        }
      ],
      "name": "state",
      "outputs": [
        {
          "internalType": "enum IGovernor.ProposalState",
          "name": "",
          "type": "uint8"
        }
      ],
      "stateMutability": "view",
      "type": "function",
      "constant": true
    },
    {
      "inputs": [
        {
          "internalType": "bytes4",
          "name": "interfaceId",
          "type": "bytes4"
        }
      ],
      "name": "supportsInterface",
      "outputs": [
        {
          "internalType": "bool",
          "name": "",
          "type": "bool"
        }
      ],
      "stateMutability": "view",
      "type": "function",
      "constant": true
    },
    {
      "inputs": [],
      "name": "token",
      "outputs": [
        {
          "internalType": "contract ERC20Votes",
          "name": "",
          "type": "address"
        }
      ],
      "stateMutability": "view",
      "type": "function",
      "constant": true
    },
    {
      "inputs": [
        {
          "internalType": "uint256",
          "name": "newQuorumNumerator",
          "type": "uint256"
        }
      ],
      "name": "updateQuorumNumerator",
      "outputs": [],
      "stateMutability": "nonpayable",
      "type": "function"
    },
    {
      "inputs": [],
      "name": "version",
      "outputs": [
        {
          "internalType": "string",
          "name": "",
          "type": "string"
        }
      ],
      "stateMutability": "view",
      "type": "function",
      "constant": true
    },
    {
      "stateMutability": "payable",
      "type": "receive",
      "payable": true
    },
    {
      "inputs": [],
      "name": "votingDelay",
      "outputs": [
        {
          "internalType": "uint256",
          "name": "",
          "type": "uint256"
        }
      ],
      "stateMutability": "view",
      "type": "function",
      "constant": true
    },
    {
      "inputs": [],
      "name": "votingPeriod",
      "outputs": [
        {
          "internalType": "uint256",
          "name": "",
          "type": "uint256"
        }
      ],
      "stateMutability": "view",
      "type": "function",
      "constant": true
    },
    {
      "inputs": [
        {
          "internalType": "uint256",
          "name": "blockNumber",
          "type": "uint256"
        }
      ],
      "name": "quorum",
      "outputs": [
        {
          "internalType": "uint256",
          "name": "",
          "type": "uint256"
        }
      ],
      "stateMutability": "view",
      "type": "function",
      "constant": true
    },
    {
      "inputs": [
        {
          "internalType": "address",
          "name": "account",
          "type": "address"
        },
        {
          "internalType": "uint256",
          "name": "blockNumber",
          "type": "uint256"
        }
      ],
      "name": "getVotes",
      "outputs": [
        {
          "internalType": "uint256",
          "name": "",
          "type": "uint256"
        }
      ],
      "stateMutability": "view",
      "type": "function",
      "constant": true
    },
    {
      "inputs": [],
      "name": "proposalThreshold",
      "outputs": [
        {
          "internalType": "uint256",
          "name": "",
          "type": "uint256"
        }
      ],
      "stateMutability": "view",
      "type": "function",
      "constant": true
    }
  ],
  "bytecode": "0x6101606040523480156200001257600080fd5b5060405162004e7338038062004e738339818101604052810190620000389190620004e6565b600481600161b2fa60006040518060400160405280600a81526020017f4d79476f7665726e6f72000000000000000000000000000000000000000000008152508062000089620001e060201b60201c565b60008280519060200120905060008280519060200120905060007f8b73c3c69bb8fe3d512ecc4cf759cc79239f7b179b0ffacaa9a75d522b39400f90508260e081815250508161010081815250504660a08181525050620000f28184846200021d60201b60201c565b608081815250503073ffffffffffffffffffffffffffffffffffffffff1660c08173ffffffffffffffffffffffffffffffffffffffff1660601b8152505080610120818152505050505050508060009080519060200190620001569291906200041f565b505062000169836200025960201b60201c565b6200017a82620002a060201b60201c565b6200018b816200032d60201b60201c565b5050508073ffffffffffffffffffffffffffffffffffffffff166101408173ffffffffffffffffffffffffffffffffffffffff1660601b8152505050620001d8816200037460201b60201c565b505062000811565b60606040518060400160405280600181526020017f3100000000000000000000000000000000000000000000000000000000000000815250905090565b600083838346306040516020016200023a95949392919062000593565b6040516020818303038152906040528051906020012090509392505050565b7fc565b045403dc03c2eea82b81a0465edad9e2e7fc4d97e11421c209da93d7a93600254826040516200028e92919062000634565b60405180910390a18060028190555050565b60008111620002e6576040517f08c379a0000000000000000000000000000000000000000000000000000000008152600401620002dd9062000612565b60405180910390fd5b7f7e3f7f0708a84de9203036abaa450dccc85ad5ff52f78c170f3edb55cf5e8828600354826040516200031b92919062000634565b60405180910390a18060038190555050565b7fccb45da8d5717e6c4544694297c4ba5cf151d455c9bb0ed4fc7a38411bc05461600454826040516200036292919062000634565b60405180910390a18060048190555050565b620003846200041660201b60201c565b811115620003c9576040517f08c379a0000000000000000000000000000000000000000000000000000000008152600401620003c090620005f0565b60405180910390fd5b60006006549050816006819055507f0553476bf02ef2726e8ce5ced78d63e26e602e4a2257b1f559418e24b463399781836040516200040a92919062000634565b60405180910390a15050565b60006064905090565b8280546200042d90620006ce565b90600052602060002090601f0160209004810192826200045157600085556200049d565b82601f106200046c57805160ff19168380011785556200049d565b828001600101855582156200049d579182015b828111156200049c5782518255916020019190600101906200047f565b5b509050620004ac9190620004b0565b5090565b5b80821115620004cb576000816000905550600101620004b1565b5090565b600081519050620004e081620007f7565b92915050565b600060208284031215620004f957600080fd5b60006200050984828501620004cf565b91505092915050565b6200051d8162000672565b82525050565b6200052e8162000686565b82525050565b60006200054360438362000661565b9150620005508262000733565b606082019050919050565b60006200056a60278362000661565b91506200057782620007a8565b604082019050919050565b6200058d81620006c4565b82525050565b600060a082019050620005aa600083018862000523565b620005b9602083018762000523565b620005c8604083018662000523565b620005d7606083018562000582565b620005e6608083018462000512565b9695505050505050565b600060208201905081810360008301526200060b8162000534565b9050919050565b600060208201905081810360008301526200062d816200055b565b9050919050565b60006040820190506200064b600083018562000582565b6200065a602083018462000582565b9392505050565b600082825260208201905092915050565b60006200067f82620006a4565b9050919050565b6000819050919050565b60006200069d8262000672565b9050919050565b600073ffffffffffffffffffffffffffffffffffffffff82169050919050565b6000819050919050565b60006002820490506001821680620006e757607f821691505b60208210811415620006fe57620006fd62000704565b5b50919050565b7f4e487b7100000000000000000000000000000000000000000000000000000000600052602260045260246000fd5b7f476f7665726e6f72566f74657351756f72756d4672616374696f6e3a2071756f60008201527f72756d4e756d657261746f72206f7665722071756f72756d44656e6f6d696e6160208201527f746f720000000000000000000000000000000000000000000000000000000000604082015250565b7f476f7665726e6f7253657474696e67733a20766f74696e6720706572696f642060008201527f746f6f206c6f7700000000000000000000000000000000000000000000000000602082015250565b620008028162000690565b81146200080e57600080fd5b50565b60805160a05160c05160601c60e05161010051610120516101405160601c6145f3620008806000396000818161158901528181611c530152611d5d01526000611f3401526000611f7601526000611f5501526000611e8a01526000611ee001526000611f0901526145f36000f3fe6080604052600436106101bb5760003560e01c80637b3c71d3116100ec578063dd4e2ba51161008a578063eb9019d411610064578063eb9019d4146106d5578063ece40cc114610712578063f8ce560a1461073b578063fc0c546a1461077857610201565b8063dd4e2ba514610656578063deaaa7cc14610681578063ea0217cf146106ac57610201565b8063a7713a70116100c6578063a7713a7014610586578063b58131b0146105b1578063c01f9e37146105dc578063c59057e41461061957610201565b80637b3c71d3146104e15780637d5e81e21461051e57806397c3d3341461055b57610201565b80633bccf4fd11610159578063544ffc9c11610133578063544ffc9c1461041157806354fd4d5014610450578063567813881461047b57806370b0f660146104b857610201565b80633bccf4fd1461035a5780633e4f49e61461039757806343859632146103d457610201565b806306fdde031161019557806306fdde03146102975780632656227d146102c25780632d63f693146102f25780633932abb11461032f57610201565b806301ffc9a71461020657806302a251a31461024357806306f3f9e61461026e57610201565b36610201573073ffffffffffffffffffffffffffffffffffffffff166101df6107a3565b73ffffffffffffffffffffffffffffffffffffffff16146101ff57600080fd5b005b600080fd5b34801561021257600080fd5b5061022d60048036038101906102289190612bf2565b6107ab565b60405161023a9190613496565b60405180910390f35b34801561024f57600080fd5b50610258610825565b6040516102659190613813565b60405180910390f35b34801561027a57600080fd5b5061029560048036038101906102909190612c1b565b610834565b005b3480156102a357600080fd5b506102ac6108bc565b6040516102b991906135d1565b60405180910390f35b6102dc60048036038101906102d79190612a84565b61094e565b6040516102e99190613813565b60405180910390f35b3480156102fe57600080fd5b5061031960048036038101906103149190612c1b565b610b19565b6040516103269190613813565b60405180910390f35b34801561033b57600080fd5b50610344610b87565b6040516103519190613813565b60405180910390f35b34801561036657600080fd5b50610381600480360381019061037c9190612d51565b610b96565b60405161038e9190613813565b60405180910390f35b3480156103a357600080fd5b506103be60048036038101906103b99190612c1b565b610c20565b6040516103cb91906135b6565b60405180910390f35b3480156103e057600080fd5b506103fb60048036038101906103f69190612c6d565b610dfd565b6040516104089190613496565b60405180910390f35b34801561041d57600080fd5b5061043860048036038101906104339190612c1b565b610e68565b60405161044793929190613907565b60405180910390f35b34801561045c57600080fd5b50610465610ea0565b60405161047291906135d1565b60405180910390f35b34801561048757600080fd5b506104a2600480360381019061049d9190612ca9565b610edd565b6040516104af9190613813565b60405180910390f35b3480156104c457600080fd5b506104df60048036038101906104da9190612c1b565b610f0e565b005b3480156104ed57600080fd5b5061050860048036038101906105039190612ce5565b610f96565b6040516105159190613813565b60405180910390f35b34801561052a57600080fd5b5061054560048036038101906105409190612b2f565b610ffe565b6040516105529190613813565b60405180910390f35b34801561056757600080fd5b50610570611324565b60405161057d9190613813565b60405180910390f35b34801561059257600080fd5b5061059b61132d565b6040516105a89190613813565b60405180910390f35b3480156105bd57600080fd5b506105c6611337565b6040516105d39190613813565b60405180910390f35b3480156105e857600080fd5b5061060360048036038101906105fe9190612c1b565b611346565b6040516106109190613813565b60405180910390f35b34801561062557600080fd5b50610640600480360381019061063b9190612a84565b6113b4565b60405161064d9190613813565b60405180910390f35b34801561066257600080fd5b5061066b6113f0565b60405161067891906135d1565b60405180910390f35b34801561068d57600080fd5b5061069661142d565b6040516106a391906134b1565b60405180910390f35b3480156106b857600080fd5b506106d360048036038101906106ce9190612c1b565b611451565b005b3480156106e157600080fd5b506106fc60048036038101906106f79190612a48565b6114d9565b6040516107099190613813565b60405180910390f35b34801561071e57600080fd5b5061073960048036038101906107349190612c1b565b6114ed565b005b34801561074757600080fd5b50610762600480360381019061075d9190612c1b565b611575565b60405161076f9190613813565b60405180910390f35b34801561078457600080fd5b5061078d611587565b60405161079a919061359b565b60405180910390f35b600030905090565b60007fbf26d897000000000000000000000000000000000000000000000000000000007bffffffffffffffffffffffffffffffffffffffffffffffffffffffff1916827bffffffffffffffffffffffffffffffffffffffffffffffffffffffff1916148061081e575061081d826115ab565b5b9050919050565b600061082f611615565b905090565b61083c6107a3565b73ffffffffffffffffffffffffffffffffffffffff1661085a61161f565b73ffffffffffffffffffffffffffffffffffffffff16146108b0576040517f08c379a00000000000000000000000000000000000000000000000000000000081526004016108a790613613565b60405180910390fd5b6108b981611627565b50565b6060600080546108cb90613e67565b80601f01602080910402602001604051908101604052809291908181526020018280546108f790613e67565b80156109445780601f1061091957610100808354040283529160200191610944565b820191906000526020600020905b81548152906001019060200180831161092757829003601f168201915b5050505050905090565b60008061095d868686866113b4565b9050600061096a82610c20565b9050600460078111156109a6577f4e487b7100000000000000000000000000000000000000000000000000000000600052602160045260246000fd5b8160078111156109df577f4e487b7100000000000000000000000000000000000000000000000000000000600052602160045260246000fd5b1480610a5b575060056007811115610a20577f4e487b7100000000000000000000000000000000000000000000000000000000600052602160045260246000fd5b816007811115610a59577f4e487b7100000000000000000000000000000000000000000000000000000000600052602160045260246000fd5b145b610a9a576040517f08c379a0000000000000000000000000000000000000000000000000000000008152600401610a9190613793565b60405180910390fd5b600180600084815260200190815260200160002060020160006101000a81548160ff0219169083151502179055507f712ae1383f79ac853f8d882153778e0260ef8f03b504e2866e0593e04d2b291f82604051610af79190613813565b60405180910390a1610b0c82888888886116bc565b8192505050949350505050565b6000610b76600160008481526020019081526020016000206000016040518060200160405290816000820160009054906101000a900467ffffffffffffffff1667ffffffffffffffff1667ffffffffffffffff168152505061183d565b67ffffffffffffffff169050919050565b6000610b9161184b565b905090565b600080610bf7610bef7f150214d74d59b7d1e90c73fc22ef3d991dd0a76b046543d4d80ab92d2a50328f8989604051602001610bd49392919061351f565b60405160208183030381529060405280519060200120611855565b86868661186f565b9050610c148782886040518060200160405280600081525061189a565b91505095945050505050565b60008060016000848152602001908152602001600020604051806080016040529081600082016040518060200160405290816000820160009054906101000a900467ffffffffffffffff1667ffffffffffffffff1667ffffffffffffffff16815250508152602001600182016040518060200160405290816000820160009054906101000a900467ffffffffffffffff1667ffffffffffffffff1667ffffffffffffffff168152505081526020016002820160009054906101000a900460ff161515151581526020016002820160019054906101000a900460ff1615151515815250509050806040015115610d19576007915050610df8565b806060015115610d2d576002915050610df8565b43610d3b826000015161183d565b67ffffffffffffffff1610610d54576000915050610df8565b43610d62826020015161183d565b67ffffffffffffffff1610610d7b576001915050610df8565b610d888160200151611a3a565b15610dbd57610d9683611a66565b8015610da75750610da683611aad565b5b610db2576003610db5565b60045b915050610df8565b6040517f08c379a0000000000000000000000000000000000000000000000000000000008152600401610def906137b3565b60405180910390fd5b919050565b60006005600084815260200190815260200160002060030160008373ffffffffffffffffffffffffffffffffffffffff1673ffffffffffffffffffffffffffffffffffffffff16815260200190815260200160002060009054906101000a900460ff16905092915050565b600080600080600560008681526020019081526020016000209050806000015481600101548260020154935093509350509193909250565b60606040518060400160405280600181526020017f3100000000000000000000000000000000000000000000000000000000000000815250905090565b600080610ee861161f565b9050610f058482856040518060200160405280600081525061189a565b91505092915050565b610f166107a3565b73ffffffffffffffffffffffffffffffffffffffff16610f3461161f565b73ffffffffffffffffffffffffffffffffffffffff1614610f8a576040517f08c379a0000000000000000000000000000000000000000000000000000000008152600401610f8190613613565b60405180910390fd5b610f9381611ad8565b50565b600080610fa161161f565b9050610ff386828787878080601f016020809104026020016040519081016040528093929190818152602001838380828437600081840152601f19601f8201169050808301925050505050505061189a565b915050949350505050565b6000611008611337565b61101e336001436110199190613cf7565b6114d9565b101561105f576040517f08c379a000000000000000000000000000000000000000000000000000000000815260040161105690613653565b60405180910390fd5b600061107486868686805190602001206113b4565b905084518651146110ba576040517f08c379a00000000000000000000000000000000000000000000000000000000081526004016110b190613693565b60405180910390fd5b83518651146110fe576040517f08c379a00000000000000000000000000000000000000000000000000000000081526004016110f590613693565b60405180910390fd5b6000865111611142576040517f08c379a000000000000000000000000000000000000000000000000000000000815260040161113990613733565b60405180910390fd5b60006001600083815260200190815260200160002090506111a2816000016040518060200160405290816000820160009054906101000a900467ffffffffffffffff1667ffffffffffffffff1667ffffffffffffffff1681525050611b1d565b6111e1576040517f08c379a00000000000000000000000000000000000000000000000000000000081526004016111d8906137f3565b60405180910390fd5b60006111f36111ee610b87565b611b37565b6111fc43611b37565b6112069190613c2e565b9050600061121a611215610825565b611b37565b826112259190613c2e565b905061123d8284600001611b8e90919063ffffffff16565b6112538184600101611b8e90919063ffffffff16565b7f7d84a6263ae0d98d3329bd7b46bb4e8d6f98cd35a7adb45c274c8b7fd5ebd5e08461127d61161f565b8b8b8d5167ffffffffffffffff8111156112c0577f4e487b7100000000000000000000000000000000000000000000000000000000600052604160045260246000fd5b6040519080825280602002602001820160405280156112f357816020015b60608152602001906001900390816112de5790505b508c88888e60405161130d9998979695949392919061382e565b60405180910390a183945050505050949350505050565b60006064905090565b6000600654905090565b6000611341611bbd565b905090565b60006113a3600160008481526020019081526020016000206001016040518060200160405290816000820160009054906101000a900467ffffffffffffffff1667ffffffffffffffff1667ffffffffffffffff168152505061183d565b67ffffffffffffffff169050919050565b6000848484846040516020016113cd949392919061343c565b6040516020818303038152906040528051906020012060001c9050949350505050565b60606040518060400160405280602081526020017f737570706f72743d627261766f2671756f72756d3d666f722c6162737461696e815250905090565b7f150214d74d59b7d1e90c73fc22ef3d991dd0a76b046543d4d80ab92d2a50328f81565b6114596107a3565b73ffffffffffffffffffffffffffffffffffffffff1661147761161f565b73ffffffffffffffffffffffffffffffffffffffff16146114cd576040517f08c379a00000000000000000000000000000000000000000000000000000000081526004016114c490613613565b60405180910390fd5b6114d681611bc7565b50565b60006114e58383611c4f565b905092915050565b6114f56107a3565b73ffffffffffffffffffffffffffffffffffffffff1661151361161f565b73ffffffffffffffffffffffffffffffffffffffff1614611569576040517f08c379a000000000000000000000000000000000000000000000000000000000815260040161156090613613565b60405180910390fd5b61157281611d04565b50565b600061158082611d49565b9050919050565b7f000000000000000000000000000000000000000000000000000000000000000081565b60007f01ffc9a7000000000000000000000000000000000000000000000000000000007bffffffffffffffffffffffffffffffffffffffffffffffffffffffff1916827bffffffffffffffffffffffffffffffffffffffffffffffffffffffff1916149050919050565b6000600354905090565b600033905090565b61162f611324565b811115611671576040517f08c379a000000000000000000000000000000000000000000000000000000000815260040161166890613633565b60405180910390fd5b60006006549050816006819055507f0553476bf02ef2726e8ce5ced78d63e26e602e4a2257b1f559418e24b463399781836040516116b09291906138de565b60405180910390a15050565b600060405180606001604052806027815260200161459760279139905060005b855181101561183457600080878381518110611721577f4e487b7100000000000000000000000000000000000000000000000000000000600052603260045260246000fd5b602002602001015173ffffffffffffffffffffffffffffffffffffffff16878481518110611778577f4e487b7100000000000000000000000000000000000000000000000000000000600052603260045260246000fd5b60200260200101518785815181106117b9577f4e487b7100000000000000000000000000000000000000000000000000000000600052603260045260246000fd5b60200260200101516040516117ce91906133c5565b60006040518083038185875af1925050503d806000811461180b576040519150601f19603f3d011682016040523d82523d6000602084013e611810565b606091505b5091509150611820828286611e1f565b5050508061182d90613eca565b90506116dc565b50505050505050565b600081600001519050919050565b6000600254905090565b6000611868611862611e86565b83611fa0565b9050919050565b600080600061188087878787611fd3565b9150915061188d816120e0565b8192505050949350505050565b600080600160008781526020019081526020016000209050600160078111156118ec577f4e487b7100000000000000000000000000000000000000000000000000000000600052602160045260246000fd5b6118f587610c20565b600781111561192d577f4e487b7100000000000000000000000000000000000000000000000000000000600052602160045260246000fd5b1461196d576040517f08c379a000000000000000000000000000000000000000000000000000000000815260040161196490613713565b60405180910390fd5b60006119cb866119bc846000016040518060200160405290816000820160009054906101000a900467ffffffffffffffff1667ffffffffffffffff1667ffffffffffffffff168152505061183d565b67ffffffffffffffff166114d9565b90506119d987878784612431565b8573ffffffffffffffffffffffffffffffffffffffff167fb8e138887d0aa13bab447e82de9d5c1777041ecd21ca36ba824ff1e6c07ddda488878488604051611a25949392919061393e565b60405180910390a28092505050949350505050565b6000611a45826126a9565b8015611a5f575043826000015167ffffffffffffffff1611155b9050919050565b60008060056000848152602001908152602001600020905080600201548160010154611a929190613bd8565b611aa3611a9e85610b19565b611575565b1115915050919050565b6000806005600084815260200190815260200160002090508060000154816001015411915050919050565b7fc565b045403dc03c2eea82b81a0465edad9e2e7fc4d97e11421c209da93d7a9360025482604051611b0b9291906138de565b60405180910390a18060028190555050565b600080826000015167ffffffffffffffff16149050919050565b600067ffffffffffffffff8016821115611b86576040517f08c379a0000000000000000000000000000000000000000000000000000000008152600401611b7d90613773565b60405180910390fd5b819050919050565b808260000160006101000a81548167ffffffffffffffff021916908367ffffffffffffffff1602179055505050565b6000600454905090565b60008111611c0a576040517f08c379a0000000000000000000000000000000000000000000000000000000008152600401611c01906136b3565b60405180910390fd5b7f7e3f7f0708a84de9203036abaa450dccc85ad5ff52f78c170f3edb55cf5e882860035482604051611c3d9291906138de565b60405180910390a18060038190555050565b60007f000000000000000000000000000000000000000000000000000000000000000073ffffffffffffffffffffffffffffffffffffffff16633a46b1a884846040518363ffffffff1660e01b8152600401611cac929190613413565b60206040518083038186803b158015611cc457600080fd5b505afa158015611cd8573d6000803e3d6000fd5b505050506040513d601f19601f82011682018060405250810190611cfc9190612c44565b905092915050565b7fccb45da8d5717e6c4544694297c4ba5cf151d455c9bb0ed4fc7a38411bc0546160045482604051611d379291906138de565b60405180910390a18060048190555050565b6000611d53611324565b611d5b61132d565b7f000000000000000000000000000000000000000000000000000000000000000073ffffffffffffffffffffffffffffffffffffffff16638e539e8c856040518263ffffffff1660e01b8152600401611db49190613813565b60206040518083038186803b158015611dcc57600080fd5b505afa158015611de0573d6000803e3d6000fd5b505050506040513d601f19601f82011682018060405250810190611e049190612c44565b611e0e9190613c9d565b611e189190613c6c565b9050919050565b60608315611e2f57829050611e7f565b600083511115611e425782518084602001fd5b816040517f08c379a0000000000000000000000000000000000000000000000000000000008152600401611e7691906135d1565b60405180910390fd5b9392505050565b60007f000000000000000000000000000000000000000000000000000000000000000073ffffffffffffffffffffffffffffffffffffffff163073ffffffffffffffffffffffffffffffffffffffff16148015611f0257507f000000000000000000000000000000000000000000000000000000000000000046145b15611f2f577f00000000000000000000000000000000000000000000000000000000000000009050611f9d565b611f9a7f00000000000000000000000000000000000000000000000000000000000000007f00000000000000000000000000000000000000000000000000000000000000007f00000000000000000000000000000000000000000000000000000000000000006126c3565b90505b90565b60008282604051602001611fb59291906133dc565b60405160208183030381529060405280519060200120905092915050565b6000807f7fffffffffffffffffffffffffffffff5d576e7357a4501ddfe92f46681b20a08360001c111561200e5760006003915091506120d7565b601b8560ff16141580156120265750601c8560ff1614155b156120385760006004915091506120d7565b60006001878787876040516000815260200160405260405161205d9493929190613556565b6020604051602081039080840390855afa15801561207f573d6000803e3d6000fd5b505050602060405103519050600073ffffffffffffffffffffffffffffffffffffffff168173ffffffffffffffffffffffffffffffffffffffff1614156120ce576000600192509250506120d7565b80600092509250505b94509492505050565b6000600481111561211a577f4e487b7100000000000000000000000000000000000000000000000000000000600052602160045260246000fd5b816004811115612153577f4e487b7100000000000000000000000000000000000000000000000000000000600052602160045260246000fd5b141561215e5761242e565b60016004811115612198577f4e487b7100000000000000000000000000000000000000000000000000000000600052602160045260246000fd5b8160048111156121d1577f4e487b7100000000000000000000000000000000000000000000000000000000600052602160045260246000fd5b1415612212576040517f08c379a0000000000000000000000000000000000000000000000000000000008152600401612209906135f3565b60405180910390fd5b6002600481111561224c577f4e487b7100000000000000000000000000000000000000000000000000000000600052602160045260246000fd5b816004811115612285577f4e487b7100000000000000000000000000000000000000000000000000000000600052602160045260246000fd5b14156122c6576040517f08c379a00000000000000000000000000000000000000000000000000000000081526004016122bd90613673565b60405180910390fd5b60036004811115612300577f4e487b7100000000000000000000000000000000000000000000000000000000600052602160045260246000fd5b816004811115612339577f4e487b7100000000000000000000000000000000000000000000000000000000600052602160045260246000fd5b141561237a576040517f08c379a0000000000000000000000000000000000000000000000000000000008152600401612371906136d3565b60405180910390fd5b6004808111156123b3577f4e487b7100000000000000000000000000000000000000000000000000000000600052602160045260246000fd5b8160048111156123ec577f4e487b7100000000000000000000000000000000000000000000000000000000600052602160045260246000fd5b141561242d576040517f08c379a000000000000000000000000000000000000000000000000000000000815260040161242490613753565b60405180910390fd5b5b50565b60006005600086815260200190815260200160002090508060030160008573ffffffffffffffffffffffffffffffffffffffff1673ffffffffffffffffffffffffffffffffffffffff16815260200190815260200160002060009054906101000a900460ff16156124d7576040517f08c379a00000000000000000000000000000000000000000000000000000000081526004016124ce906136f3565b60405180910390fd5b60018160030160008673ffffffffffffffffffffffffffffffffffffffff1673ffffffffffffffffffffffffffffffffffffffff16815260200190815260200160002060006101000a81548160ff0219169083151502179055506000600281111561256b577f4e487b7100000000000000000000000000000000000000000000000000000000600052602160045260246000fd5b60ff168360ff161415612598578181600001600082825461258c9190613bd8565b925050819055506126a2565b600160028111156125d2577f4e487b7100000000000000000000000000000000000000000000000000000000600052602160045260246000fd5b60ff168360ff1614156125ff57818160010160008282546125f39190613bd8565b925050819055506126a1565b600280811115612638577f4e487b7100000000000000000000000000000000000000000000000000000000600052602160045260246000fd5b60ff168360ff16141561266557818160020160008282546126599190613bd8565b925050819055506126a0565b6040517f08c379a0000000000000000000000000000000000000000000000000000000008152600401612697906137d3565b60405180910390fd5b5b5b5050505050565b600080826000015167ffffffffffffffff16119050919050565b600083838346306040516020016126de9594939291906134cc565b6040516020818303038152906040528051906020012090509392505050565b600061271061270b846139af565b61398a565b9050808382526020820190508285602086028201111561272f57600080fd5b60005b8581101561275f578161274588826128ae565b845260208401935060208301925050600181019050612732565b5050509392505050565b600061277c612777846139db565b61398a565b9050808382526020820190508260005b858110156127bc57813585016127a2888261296b565b84526020840193506020830192505060018101905061278c565b5050509392505050565b60006127d96127d484613a07565b61398a565b905080838252602082019050828560208602820111156127f857600080fd5b60005b85811015612828578161280e8882612a09565b8452602084019350602083019250506001810190506127fb565b5050509392505050565b600061284561284084613a33565b61398a565b90508281526020810184848401111561285d57600080fd5b612868848285613e25565b509392505050565b600061288361287e84613a64565b61398a565b90508281526020810184848401111561289b57600080fd5b6128a6848285613e25565b509392505050565b6000813590506128bd81614523565b92915050565b600082601f8301126128d457600080fd5b81356128e48482602086016126fd565b91505092915050565b600082601f8301126128fe57600080fd5b813561290e848260208601612769565b91505092915050565b600082601f83011261292857600080fd5b81356129388482602086016127c6565b91505092915050565b6000813590506129508161453a565b92915050565b60008135905061296581614551565b92915050565b600082601f83011261297c57600080fd5b813561298c848260208601612832565b91505092915050565b60008083601f8401126129a757600080fd5b8235905067ffffffffffffffff8111156129c057600080fd5b6020830191508360018202830111156129d857600080fd5b9250929050565b600082601f8301126129f057600080fd5b8135612a00848260208601612870565b91505092915050565b600081359050612a1881614568565b92915050565b600081519050612a2d81614568565b92915050565b600081359050612a428161457f565b92915050565b60008060408385031215612a5b57600080fd5b6000612a69858286016128ae565b9250506020612a7a85828601612a09565b9150509250929050565b60008060008060808587031215612a9a57600080fd5b600085013567ffffffffffffffff811115612ab457600080fd5b612ac0878288016128c3565b945050602085013567ffffffffffffffff811115612add57600080fd5b612ae987828801612917565b935050604085013567ffffffffffffffff811115612b0657600080fd5b612b12878288016128ed565b9250506060612b2387828801612941565b91505092959194509250565b60008060008060808587031215612b4557600080fd5b600085013567ffffffffffffffff811115612b5f57600080fd5b612b6b878288016128c3565b945050602085013567ffffffffffffffff811115612b8857600080fd5b612b9487828801612917565b935050604085013567ffffffffffffffff811115612bb157600080fd5b612bbd878288016128ed565b925050606085013567ffffffffffffffff811115612bda57600080fd5b612be6878288016129df565b91505092959194509250565b600060208284031215612c0457600080fd5b6000612c1284828501612956565b91505092915050565b600060208284031215612c2d57600080fd5b6000612c3b84828501612a09565b91505092915050565b600060208284031215612c5657600080fd5b6000612c6484828501612a1e565b91505092915050565b60008060408385031215612c8057600080fd5b6000612c8e85828601612a09565b9250506020612c9f858286016128ae565b9150509250929050565b60008060408385031215612cbc57600080fd5b6000612cca85828601612a09565b9250506020612cdb85828601612a33565b9150509250929050565b60008060008060608587031215612cfb57600080fd5b6000612d0987828801612a09565b9450506020612d1a87828801612a33565b935050604085013567ffffffffffffffff811115612d3757600080fd5b612d4387828801612995565b925092505092959194509250565b600080600080600060a08688031215612d6957600080fd5b6000612d7788828901612a09565b9550506020612d8888828901612a33565b9450506040612d9988828901612a33565b9350506060612daa88828901612941565b9250506080612dbb88828901612941565b9150509295509295909350565b6000612dd48383612e20565b60208301905092915050565b6000612dec8383613019565b905092915050565b6000612e0083836130a1565b905092915050565b6000612e148383613389565b60208301905092915050565b612e2981613d2b565b82525050565b612e3881613d2b565b82525050565b6000612e4982613ad5565b612e538185613b4b565b9350612e5e83613a95565b8060005b83811015612e8f578151612e768882612dc8565b9750612e8183613b17565b925050600181019050612e62565b5085935050505092915050565b6000612ea782613ae0565b612eb18185613b5c565b935083602082028501612ec385613aa5565b8060005b85811015612eff5784840389528151612ee08582612de0565b9450612eeb83613b24565b925060208a01995050600181019050612ec7565b50829750879550505050505092915050565b6000612f1c82613aeb565b612f268185613b6d565b935083602082028501612f3885613ab5565b8060005b85811015612f745784840389528151612f558582612df4565b9450612f6083613b31565b925060208a01995050600181019050612f3c565b50829750879550505050505092915050565b6000612f9182613af6565b612f9b8185613b7e565b9350612fa683613ac5565b8060005b83811015612fd7578151612fbe8882612e08565b9750612fc983613b3e565b925050600181019050612faa565b5085935050505092915050565b612fed81613d3d565b82525050565b612ffc81613d49565b82525050565b61301361300e82613d49565b613f13565b82525050565b600061302482613b01565b61302e8185613b8f565b935061303e818560208601613e34565b61304781614008565b840191505092915050565b600061305d82613b01565b6130678185613ba0565b9350613077818560208601613e34565b80840191505092915050565b61308c81613ddd565b82525050565b61309b81613e01565b82525050565b60006130ac82613b0c565b6130b68185613bab565b93506130c6818560208601613e34565b6130cf81614008565b840191505092915050565b60006130e582613b0c565b6130ef8185613bbc565b93506130ff818560208601613e34565b61310881614008565b840191505092915050565b6000613120601883613bbc565b915061312b82614019565b602082019050919050565b6000613143601883613bbc565b915061314e82614042565b602082019050919050565b6000613166604383613bbc565b91506131718261406b565b606082019050919050565b6000613189604383613bbc565b9150613194826140e0565b606082019050919050565b60006131ac601f83613bbc565b91506131b782614155565b602082019050919050565b60006131cf600283613bcd565b91506131da8261417e565b600282019050919050565b60006131f2602183613bbc565b91506131fd826141a7565b604082019050919050565b6000613215602783613bbc565b9150613220826141f6565b604082019050919050565b6000613238602283613bbc565b915061324382614245565b604082019050919050565b600061325b602783613bbc565b915061326682614294565b604082019050919050565b600061327e602383613bbc565b9150613289826142e3565b604082019050919050565b60006132a1601883613bbc565b91506132ac82614332565b602082019050919050565b60006132c4602283613bbc565b91506132cf8261435b565b604082019050919050565b60006132e7602683613bbc565b91506132f2826143aa565b604082019050919050565b600061330a602183613bbc565b9150613315826143f9565b604082019050919050565b600061332d601d83613bbc565b915061333882614448565b602082019050919050565b6000613350603583613bbc565b915061335b82614471565b604082019050919050565b6000613373602183613bbc565b915061337e826144c0565b604082019050919050565b61339281613db2565b82525050565b6133a181613db2565b82525050565b6133b081613e13565b82525050565b6133bf81613dd0565b82525050565b60006133d18284613052565b915081905092915050565b60006133e7826131c2565b91506133f38285613002565b6020820191506134038284613002565b6020820191508190509392505050565b60006040820190506134286000830185612e2f565b6134356020830184613398565b9392505050565b600060808201905081810360008301526134568187612e3e565b9050818103602083015261346a8186612f86565b9050818103604083015261347e8185612e9c565b905061348d6060830184612ff3565b95945050505050565b60006020820190506134ab6000830184612fe4565b92915050565b60006020820190506134c66000830184612ff3565b92915050565b600060a0820190506134e16000830188612ff3565b6134ee6020830187612ff3565b6134fb6040830186612ff3565b6135086060830185613398565b6135156080830184612e2f565b9695505050505050565b60006060820190506135346000830186612ff3565b6135416020830185613398565b61354e60408301846133b6565b949350505050565b600060808201905061356b6000830187612ff3565b61357860208301866133b6565b6135856040830185612ff3565b6135926060830184612ff3565b95945050505050565b60006020820190506135b06000830184613083565b92915050565b60006020820190506135cb6000830184613092565b92915050565b600060208201905081810360008301526135eb81846130da565b905092915050565b6000602082019050818103600083015261360c81613113565b9050919050565b6000602082019050818103600083015261362c81613136565b9050919050565b6000602082019050818103600083015261364c81613159565b9050919050565b6000602082019050818103600083015261366c8161317c565b9050919050565b6000602082019050818103600083015261368c8161319f565b9050919050565b600060208201905081810360008301526136ac816131e5565b9050919050565b600060208201905081810360008301526136cc81613208565b9050919050565b600060208201905081810360008301526136ec8161322b565b9050919050565b6000602082019050818103600083015261370c8161324e565b9050919050565b6000602082019050818103600083015261372c81613271565b9050919050565b6000602082019050818103600083015261374c81613294565b9050919050565b6000602082019050818103600083015261376c816132b7565b9050919050565b6000602082019050818103600083015261378c816132da565b9050919050565b600060208201905081810360008301526137ac816132fd565b9050919050565b600060208201905081810360008301526137cc81613320565b9050919050565b600060208201905081810360008301526137ec81613343565b9050919050565b6000602082019050818103600083015261380c81613366565b9050919050565b60006020820190506138286000830184613398565b92915050565b600061012082019050613844600083018c613398565b613851602083018b612e2f565b8181036040830152613863818a612e3e565b905081810360608301526138778189612f86565b9050818103608083015261388b8188612f11565b905081810360a083015261389f8187612e9c565b90506138ae60c08301866133a7565b6138bb60e08301856133a7565b8181036101008301526138ce81846130da565b90509a9950505050505050505050565b60006040820190506138f36000830185613398565b6139006020830184613398565b9392505050565b600060608201905061391c6000830186613398565b6139296020830185613398565b6139366040830184613398565b949350505050565b60006080820190506139536000830187613398565b61396060208301866133b6565b61396d6040830185613398565b818103606083015261397f81846130da565b905095945050505050565b60006139946139a5565b90506139a08282613e99565b919050565b6000604051905090565b600067ffffffffffffffff8211156139ca576139c9613fd9565b5b602082029050602081019050919050565b600067ffffffffffffffff8211156139f6576139f5613fd9565b5b602082029050602081019050919050565b600067ffffffffffffffff821115613a2257613a21613fd9565b5b602082029050602081019050919050565b600067ffffffffffffffff821115613a4e57613a4d613fd9565b5b613a5782614008565b9050602081019050919050565b600067ffffffffffffffff821115613a7f57613a7e613fd9565b5b613a8882614008565b9050602081019050919050565b6000819050602082019050919050565b6000819050602082019050919050565b6000819050602082019050919050565b6000819050602082019050919050565b600081519050919050565b600081519050919050565b600081519050919050565b600081519050919050565b600081519050919050565b600081519050919050565b6000602082019050919050565b6000602082019050919050565b6000602082019050919050565b6000602082019050919050565b600082825260208201905092915050565b600082825260208201905092915050565b600082825260208201905092915050565b600082825260208201905092915050565b600082825260208201905092915050565b600081905092915050565b600082825260208201905092915050565b600082825260208201905092915050565b600081905092915050565b6000613be382613db2565b9150613bee83613db2565b9250827fffffffffffffffffffffffffffffffffffffffffffffffffffffffffffffffff03821115613c2357613c22613f1d565b5b828201905092915050565b6000613c3982613dbc565b9150613c4483613dbc565b92508267ffffffffffffffff03821115613c6157613c60613f1d565b5b828201905092915050565b6000613c7782613db2565b9150613c8283613db2565b925082613c9257613c91613f4c565b5b828204905092915050565b6000613ca882613db2565b9150613cb383613db2565b9250817fffffffffffffffffffffffffffffffffffffffffffffffffffffffffffffffff0483118215151615613cec57613ceb613f1d565b5b828202905092915050565b6000613d0282613db2565b9150613d0d83613db2565b925082821015613d2057613d1f613f1d565b5b828203905092915050565b6000613d3682613d92565b9050919050565b60008115159050919050565b6000819050919050565b60007fffffffff0000000000000000000000000000000000000000000000000000000082169050919050565b6000819050613d8d8261450f565b919050565b600073ffffffffffffffffffffffffffffffffffffffff82169050919050565b6000819050919050565b600067ffffffffffffffff82169050919050565b600060ff82169050919050565b6000613de882613def565b9050919050565b6000613dfa82613d92565b9050919050565b6000613e0c82613d7f565b9050919050565b6000613e1e82613dbc565b9050919050565b82818337600083830152505050565b60005b83811015613e52578082015181840152602081019050613e37565b83811115613e61576000848401525b50505050565b60006002820490506001821680613e7f57607f821691505b60208210811415613e9357613e92613faa565b5b50919050565b613ea282614008565b810181811067ffffffffffffffff82111715613ec157613ec0613fd9565b5b80604052505050565b6000613ed582613db2565b91507fffffffffffffffffffffffffffffffffffffffffffffffffffffffffffffffff821415613f0857613f07613f1d565b5b600182019050919050565b6000819050919050565b7f4e487b7100000000000000000000000000000000000000000000000000000000600052601160045260246000fd5b7f4e487b7100000000000000000000000000000000000000000000000000000000600052601260045260246000fd5b7f4e487b7100000000000000000000000000000000000000000000000000000000600052602160045260246000fd5b7f4e487b7100000000000000000000000000000000000000000000000000000000600052602260045260246000fd5b7f4e487b7100000000000000000000000000000000000000000000000000000000600052604160045260246000fd5b6000601f19601f8301169050919050565b7f45434453413a20696e76616c6964207369676e61747572650000000000000000600082015250565b7f476f7665726e6f723a206f6e6c79476f7665726e616e63650000000000000000600082015250565b7f476f7665726e6f72566f74657351756f72756d4672616374696f6e3a2071756f60008201527f72756d4e756d657261746f72206f7665722071756f72756d44656e6f6d696e6160208201527f746f720000000000000000000000000000000000000000000000000000000000604082015250565b7f476f7665726e6f72436f6d7061746962696c697479427261766f3a2070726f7060008201527f6f73657220766f7465732062656c6f772070726f706f73616c2074687265736860208201527f6f6c640000000000000000000000000000000000000000000000000000000000604082015250565b7f45434453413a20696e76616c6964207369676e6174757265206c656e67746800600082015250565b7f1901000000000000000000000000000000000000000000000000000000000000600082015250565b7f476f7665726e6f723a20696e76616c69642070726f706f73616c206c656e677460008201527f6800000000000000000000000000000000000000000000000000000000000000602082015250565b7f476f7665726e6f7253657474696e67733a20766f74696e6720706572696f642060008201527f746f6f206c6f7700000000000000000000000000000000000000000000000000602082015250565b7f45434453413a20696e76616c6964207369676e6174757265202773272076616c60008201527f7565000000000000000000000000000000000000000000000000000000000000602082015250565b7f476f7665726e6f72566f74696e6753696d706c653a20766f746520616c72656160008201527f6479206361737400000000000000000000000000000000000000000000000000602082015250565b7f476f7665726e6f723a20766f7465206e6f742063757272656e746c792061637460008201527f6976650000000000000000000000000000000000000000000000000000000000602082015250565b7f476f7665726e6f723a20656d7074792070726f706f73616c0000000000000000600082015250565b7f45434453413a20696e76616c6964207369676e6174757265202776272076616c60008201527f7565000000000000000000000000000000000000000000000000000000000000602082015250565b7f53616665436173743a2076616c756520646f65736e27742066697420696e203660008201527f3420626974730000000000000000000000000000000000000000000000000000602082015250565b7f476f7665726e6f723a2070726f706f73616c206e6f742073756363657373667560008201527f6c00000000000000000000000000000000000000000000000000000000000000602082015250565b7f476f7665726e6f723a20756e6b6e6f776e2070726f706f73616c206964000000600082015250565b7f476f7665726e6f72566f74696e6753696d706c653a20696e76616c696420766160008201527f6c756520666f7220656e756d20566f7465547970650000000000000000000000602082015250565b7f476f7665726e6f723a2070726f706f73616c20616c726561647920657869737460008201527f7300000000000000000000000000000000000000000000000000000000000000602082015250565b600881106145205761451f613f7b565b5b50565b61452c81613d2b565b811461453757600080fd5b50565b61454381613d49565b811461454e57600080fd5b50565b61455a81613d53565b811461456557600080fd5b50565b61457181613db2565b811461457c57600080fd5b50565b61458881613dd0565b811461459357600080fd5b5056fe476f7665726e6f723a2063616c6c20726576657274656420776974686f7574206d657373616765a26469706673582212206085759efca601d834b81115e8a9c399786e3e8eb9418474234c826a63173dff64736f6c63430008020033",
  "immutableReferences": {
    "1580": [
      {
        "length": 32,
        "start": 5513
      },
      {
        "length": 32,
        "start": 7251
      },
      {
        "length": 32,
        "start": 7517
      }
    ],
    "5906": [
      {
        "length": 32,
        "start": 7945
      }
    ],
    "5908": [
      {
        "length": 32,
        "start": 7904
      }
    ],
    "5910": [
      {
        "length": 32,
        "start": 7818
      }
    ],
    "5912": [
      {
        "length": 32,
        "start": 8021
      }
    ],
    "5914": [
      {
        "length": 32,
        "start": 8054
      }
    ],
    "5916": [
      {
        "length": 32,
        "start": 7988
      }
    ]
  },
  "source": "// SPDX-License-Identifier: MIT\npragma solidity ^0.8.2;\n\nimport \"@openzeppelin/contracts/governance/Governor.sol\";\nimport \"@openzeppelin/contracts/governance/extensions/GovernorSettings.sol\";\nimport \"@openzeppelin/contracts/governance/extensions/GovernorCountingSimple.sol\";\nimport \"@openzeppelin/contracts/governance/extensions/GovernorVotes.sol\";\nimport \"@openzeppelin/contracts/governance/extensions/GovernorVotesQuorumFraction.sol\";\n\ncontract MyGovernor is Governor, GovernorSettings, GovernorCountingSimple, GovernorVotes, GovernorVotesQuorumFraction {\n    constructor(ERC20Votes _token)\n        Governor(\"MyGovernor\")\n        GovernorSettings(1 /* 1 block */, 45818 /* 1 week */, 0)\n        GovernorVotes(_token)\n        GovernorVotesQuorumFraction(4)\n    {}\n\n    // The following functions are overrides required by Solidity.\n\n    function votingDelay()\n        public\n        view\n        override(IGovernor, GovernorSettings)\n        returns (uint256)\n    {\n        return super.votingDelay();\n    }\n\n    function votingPeriod()\n        public\n        view\n        override(IGovernor, GovernorSettings)\n        returns (uint256)\n    {\n        return super.votingPeriod();\n    }\n\n    function quorum(uint256 blockNumber)\n        public\n        view\n        override(IGovernor, GovernorVotesQuorumFraction)\n        returns (uint256)\n    {\n        return super.quorum(blockNumber);\n    }\n\n    function getVotes(address account, uint256 blockNumber)\n        public\n        view\n        override(IGovernor, GovernorVotes)\n        returns (uint256)\n    {\n        return super.getVotes(account, blockNumber);\n    }\n\n    function proposalThreshold()\n        public\n        view\n        override(Governor, GovernorSettings)\n        returns (uint256)\n    {\n        return super.proposalThreshold();\n    }\n}\n\n//Rinkeby address: 0xAf10E7cCaC343919514b1A875Bf3f38278854a76\n",
  "sourcePath": "/home/johnlaptop2/legaldoc-with-gov/contracts/MyGovernor.sol",
  "compiler": {
    "name": "solc",
    "version": "0.8.2+commit.661d1103.Emscripten.clang"
  },
  "schemaVersion": "3.4.3",
  "updatedAt": "2021-12-28T23:17:01.009Z",
  "networkType": "ethereum",
  "devdoc": {
    "kind": "dev",
    "methods": {
      "COUNTING_MODE()": {
        "details": "See {IGovernor-COUNTING_MODE}."
      },
      "castVote(uint256,uint8)": {
        "details": "See {IGovernor-castVote}."
      },
      "castVoteBySig(uint256,uint8,uint8,bytes32,bytes32)": {
        "details": "See {IGovernor-castVoteBySig}."
      },
      "castVoteWithReason(uint256,uint8,string)": {
        "details": "See {IGovernor-castVoteWithReason}."
      },
      "execute(address[],uint256[],bytes[],bytes32)": {
        "details": "See {IGovernor-execute}."
      },
      "hasVoted(uint256,address)": {
        "details": "See {IGovernor-hasVoted}."
      },
      "hashProposal(address[],uint256[],bytes[],bytes32)": {
        "details": "See {IGovernor-hashProposal}. The proposal id is produced by hashing the RLC encoded `targets` array, the `values` array, the `calldatas` array and the descriptionHash (bytes32 which itself is the keccak256 hash of the description string). This proposal id can be produced from the proposal data which is part of the {ProposalCreated} event. It can even be computed in advance, before the proposal is submitted. Note that the chainId and the governor address are not part of the proposal id computation. Consequently, the same proposal (with same operation and same description) will have the same id if submitted on multiple governors accross multiple networks. This also means that in order to execute the same operation twice (on the same governor) the proposer will have to change the description in order to avoid proposal id conflicts."
      },
      "name()": {
        "details": "See {IGovernor-name}."
      },
      "proposalDeadline(uint256)": {
        "details": "See {IGovernor-proposalDeadline}."
      },
      "proposalSnapshot(uint256)": {
        "details": "See {IGovernor-proposalSnapshot}."
      },
      "proposalVotes(uint256)": {
        "details": "Accessor to the internal vote counts."
      },
      "propose(address[],uint256[],bytes[],string)": {
        "details": "See {IGovernor-propose}."
      },
      "setProposalThreshold(uint256)": {
        "details": "Update the proposal threshold. This operation can only be performed through a governance proposal. Emits a {ProposalThresholdSet} event."
      },
      "setVotingDelay(uint256)": {
        "details": "Update the voting delay. This operation can only be performed through a governance proposal. Emits a {VotingDelaySet} event."
      },
      "setVotingPeriod(uint256)": {
        "details": "Update the voting period. This operation can only be performed through a governance proposal. Emits a {VotingPeriodSet} event."
      },
      "state(uint256)": {
        "details": "See {IGovernor-state}."
      },
      "supportsInterface(bytes4)": {
        "details": "See {IERC165-supportsInterface}."
      },
      "version()": {
        "details": "See {IGovernor-version}."
      }
    },
    "version": 1
  },
  "userdoc": {
    "kind": "user",
    "methods": {},
    "version": 1
  }
}